{"contracts/AudioChat.sol":{"AudioChat":{"abi":[{"anonymous":false,"inputs":[{"indexed":true,"internalType":"address","name":"previousOwner","type":"address"},{"indexed":true,"internalType":"address","name":"newOwner","type":"address"}],"name":"OwnershipTransferred","type":"event"},{"anonymous":false,"inputs":[{"indexed":false,"internalType":"bytes32","name":"audio_event_id","type":"bytes32"},{"indexed":false,"internalType":"enum AudioChat.stateOptions","name":"new_state","type":"uint8"}],"name":"handleAudioChatChangedState","type":"event"},{"anonymous":false,"inputs":[{"indexed":false,"internalType":"bytes32","name":"audio_event_id","type":"bytes32"},{"indexed":false,"internalType":"uint256","name":"start_at","type":"uint256"},{"indexed":false,"internalType":"uint256","name":"created_at","type":"uint256"},{"indexed":false,"internalType":"string","name":"cid_metadata","type":"string"},{"indexed":false,"internalType":"enum AudioChat.stateOptions","name":"current_state","type":"uint8"}],"name":"handleNewAudioChat","type":"event"},{"anonymous":false,"inputs":[{"indexed":false,"internalType":"bytes32","name":"audio_event_id","type":"bytes32"},{"indexed":false,"internalType":"string","name":"new_cid","type":"string"}],"name":"handleUpdateMetadataCID","type":"event"},{"inputs":[{"internalType":"address","name":"","type":"address"},{"internalType":"uint256","name":"","type":"uint256"}],"name":"address_to_audio_chat","outputs":[{"internalType":"bytes32","name":"","type":"bytes32"}],"stateMutability":"view","type":"function"},{"inputs":[{"internalType":"enum AudioChat.stateOptions","name":"new_changed_state","type":"uint8"},{"internalType":"bytes32","name":"audio_chat_id","type":"bytes32"}],"name":"changeState","outputs":[],"stateMutability":"nonpayable","type":"function"},{"inputs":[{"internalType":"uint256","name":"start_at","type":"uint256"},{"internalType":"uint256","name":"created_at","type":"uint256"},{"internalType":"string","name":"cid_metadata","type":"string"},{"internalType":"address","name":"creator","type":"address"},{"internalType":"bool","name":"is_indexed","type":"bool"}],"name":"createNewAudioChat","outputs":[],"stateMutability":"nonpayable","type":"function"},{"inputs":[{"internalType":"bytes32","name":"audio_chat_id","type":"bytes32"}],"name":"deleteTheAudioChat","outputs":[],"stateMutability":"nonpayable","type":"function"},{"inputs":[],"name":"getAllChats","outputs":[{"components":[{"internalType":"bytes32","name":"audio_event_id","type":"bytes32"},{"internalType":"uint256","name":"created_at","type":"uint256"},{"internalType":"string","name":"cid_metadata","type":"string"},{"internalType":"enum AudioChat.stateOptions","name":"state","type":"uint8"},{"internalType":"bool","name":"is_indexed","type":"bool"},{"internalType":"address","name":"creator","type":"address"},{"internalType":"uint256","name":"start_at","type":"uint256"},{"internalType":"bool","name":"exists","type":"bool"},{"internalType":"uint256","name":"id_index","type":"uint256"},{"internalType":"uint256","name":"state_index","type":"uint256"},{"internalType":"uint256","name":"address_index","type":"uint256"}],"internalType":"struct AudioChat.CreateAudioChat[]","name":"","type":"tuple[]"}],"stateMutability":"view","type":"function"},{"inputs":[],"name":"getAllOwnedIds","outputs":[{"internalType":"bytes32[]","name":"","type":"bytes32[]"}],"stateMutability":"view","type":"function"},{"inputs":[{"internalType":"bytes32","name":"id","type":"bytes32"}],"name":"getAudioChatById","outputs":[{"internalType":"bytes32","name":"audio_event_id","type":"bytes32"},{"internalType":"uint256","name":"created_at","type":"uint256"},{"internalType":"uint256","name":"start_at","type":"uint256"},{"internalType":"string","name":"cid_metadata","type":"string"},{"internalType":"enum AudioChat.stateOptions","name":"state","type":"uint8"},{"internalType":"address","name":"creator","type":"address"}],"stateMutability":"view","type":"function"},{"inputs":[{"internalType":"address","name":"creator","type":"address"}],"name":"getAudioChatsByAdress","outputs":[{"components":[{"internalType":"bytes32","name":"audio_event_id","type":"bytes32"},{"internalType":"uint256","name":"created_at","type":"uint256"},{"internalType":"string","name":"cid_metadata","type":"string"},{"internalType":"enum AudioChat.stateOptions","name":"state","type":"uint8"},{"internalType":"bool","name":"is_indexed","type":"bool"},{"internalType":"address","name":"creator","type":"address"},{"internalType":"uint256","name":"start_at","type":"uint256"},{"internalType":"bool","name":"exists","type":"bool"},{"internalType":"uint256","name":"id_index","type":"uint256"},{"internalType":"uint256","name":"state_index","type":"uint256"},{"internalType":"uint256","name":"address_index","type":"uint256"}],"internalType":"struct AudioChat.CreateAudioChat[]","name":"","type":"tuple[]"}],"stateMutability":"view","type":"function"},{"inputs":[{"internalType":"enum AudioChat.stateOptions[]","name":"options","type":"uint8[]"}],"name":"getAudioChatsByState","outputs":[{"components":[{"internalType":"bytes32","name":"audio_event_id","type":"bytes32"},{"internalType":"uint256","name":"created_at","type":"uint256"},{"internalType":"string","name":"cid_metadata","type":"string"},{"internalType":"enum AudioChat.stateOptions","name":"state","type":"uint8"},{"internalType":"bool","name":"is_indexed","type":"bool"},{"internalType":"address","name":"creator","type":"address"},{"internalType":"uint256","name":"start_at","type":"uint256"},{"internalType":"bool","name":"exists","type":"bool"},{"internalType":"uint256","name":"id_index","type":"uint256"},{"internalType":"uint256","name":"state_index","type":"uint256"},{"internalType":"uint256","name":"address_index","type":"uint256"}],"internalType":"struct AudioChat.CreateAudioChat[]","name":"","type":"tuple[]"}],"stateMutability":"view","type":"function"},{"inputs":[{"internalType":"bytes32","name":"","type":"bytes32"}],"name":"id_to_audio_chat","outputs":[{"internalType":"bytes32","name":"audio_event_id","type":"bytes32"},{"internalType":"uint256","name":"created_at","type":"uint256"},{"internalType":"string","name":"cid_metadata","type":"string"},{"internalType":"enum AudioChat.stateOptions","name":"state","type":"uint8"},{"internalType":"bool","name":"is_indexed","type":"bool"},{"internalType":"address","name":"creator","type":"address"},{"internalType":"uint256","name":"start_at","type":"uint256"},{"internalType":"bool","name":"exists","type":"bool"},{"internalType":"uint256","name":"id_index","type":"uint256"},{"internalType":"uint256","name":"state_index","type":"uint256"},{"internalType":"uint256","name":"address_index","type":"uint256"}],"stateMutability":"view","type":"function"},{"inputs":[],"name":"owner","outputs":[{"internalType":"address","name":"","type":"address"}],"stateMutability":"view","type":"function"},{"inputs":[],"name":"renounceOwnership","outputs":[],"stateMutability":"nonpayable","type":"function"},{"inputs":[{"internalType":"address","name":"newOwner","type":"address"}],"name":"transferOwnership","outputs":[],"stateMutability":"nonpayable","type":"function"},{"inputs":[{"internalType":"bytes32","name":"audio_event_id","type":"bytes32"},{"internalType":"string","name":"new_cid","type":"string"},{"internalType":"uint256","name":"start_at","type":"uint256"}],"name":"updateTheAudioChat","outputs":[],"stateMutability":"nonpayable","type":"function"}],"evm":{"bytecode":{"linkReferences":{},"object":"60806040523480156200001157600080fd5b5062000032620000266200003860201b60201c565b6200004060201b60201c565b62000104565b600033905090565b60008060009054906101000a900473ffffffffffffffffffffffffffffffffffffffff169050816000806101000a81548173ffffffffffffffffffffffffffffffffffffffff021916908373ffffffffffffffffffffffffffffffffffffffff1602179055508173ffffffffffffffffffffffffffffffffffffffff168173ffffffffffffffffffffffffffffffffffffffff167f8be0079c531659141344cd1fd0a4f28419497f9722a3daafe3b4186f6b6457e060405160405180910390a35050565b61387980620001146000396000f3fe608060405234801561001057600080fd5b50600436106100ea5760003560e01c80639f7374001161008c578063de68f8a611610066578063de68f8a61461026a578063e808a54014610288578063f2fde38b146102a6578063f8b6b2d2146102c2576100ea565b80639f737400146101d0578063a476484c1461020a578063c6e98d861461023a576100ea565b8063715018a6116100c8578063715018a61461015c5780637ff45d83146101665780638da5cb5b1461019657806393bde70a146101b4576100ea565b80632b61e205146100ef57806342093c181461010b5780635b33c80d14610127575b600080fd5b610109600480360381019061010491906126e6565b6102de565b005b61012560048036038101906101209190612844565b610974565b005b610141600480360381019061013c91906126e6565b610f35565b60405161015396959493929190612a1b565b60405180910390f35b610164611096565b005b610180600480360381019061017b9190612be6565b6110aa565b60405161018d9190612e75565b60405180910390f35b61019e6113c4565b6040516101ab9190612e97565b60405180910390f35b6101ce60048036038101906101c99190612f67565b6113ed565b005b6101ea60048036038101906101e591906126e6565b6114bb565b6040516102019b9a99989796959493929190612fe5565b60405180910390f35b610224600480360381019061021f9190613097565b6115e4565b6040516102319190612e75565b60405180910390f35b610254600480360381019061024f91906130c4565b6118db565b6040516102619190613104565b60405180910390f35b61027261190c565b60405161027f91906131ce565b60405180910390f35b610290611964565b60405161029d9190612e75565b60405180910390f35b6102c060048036038101906102bb9190613097565b611bde565b005b6102dc60048036038101906102d791906131f0565b611c62565b005b6102e661202d565b600115156007600083815260200190815260200160002060050160009054906101000a900460ff1615151461031a57600080fd5b60006007600083815260200190815260200160002090508060030160009054906101000a900460ff16600481111561035557610354612995565b5b6000600481111561036957610368612995565b5b141561041557600481600701548154811061038757610386613230565b5b9060005260206000205050600460016004805490506103a6919061328e565b815481106103b7576103b6613230565b5b906000526020600020015460048260070154815481106103da576103d9613230565b5b906000526020600020018190555060048054806103fa576103f96132c2565b5b60019003818190600052602060002001600090559055610657565b8060030160009054906101000a900460ff16600481111561043957610438612995565b5b6001600481111561044d5761044c612995565b5b14156104d65760026001600280549050610467919061328e565b8154811061047857610477613230565b5b9060005260206000200154600282600701548154811061049b5761049a613230565b5b906000526020600020018190555060028054806104bb576104ba6132c2565b5b60019003818190600052602060002001600090559055610656565b8060030160009054906101000a900460ff1660048111156104fa576104f9612995565b5b6002600481111561050e5761050d612995565b5b14156105975760036001600380549050610528919061328e565b8154811061053957610538613230565b5b9060005260206000200154600382600701548154811061055c5761055b613230565b5b9060005260206000200181905550600380548061057c5761057b6132c2565b5b60019003818190600052602060002001600090559055610655565b8060030160009054906101000a900460ff1660048111156105bb576105ba612995565b5b600360048111156105cf576105ce612995565b5b141561065457600560016005805490506105e9919061328e565b815481106105fa576105f9613230565b5b9060005260206000200154600582600701548154811061061d5761061c613230565b5b9060005260206000200181905550600580548061063d5761063c6132c2565b5b600190038181906000526020600020016000905590555b5b5b5b60006007600084815260200190815260200160002060050160006101000a81548160ff0219169083151502179055506001808080549050610698919061328e565b815481106106a9576106a8613230565b5b906000526020600020015460016007600085815260200190815260200160002060060154815481106106de576106dd613230565b5b906000526020600020018190555060018054806106fe576106fd6132c2565b5b60019003818190600052602060002001600090559055600860006007600085815260200190815260200160002060030160029054906101000a900473ffffffffffffffffffffffffffffffffffffffff1673ffffffffffffffffffffffffffffffffffffffff1673ffffffffffffffffffffffffffffffffffffffff1681526020019081526020016000206001600860006007600087815260200190815260200160002060030160029054906101000a900473ffffffffffffffffffffffffffffffffffffffff1673ffffffffffffffffffffffffffffffffffffffff1673ffffffffffffffffffffffffffffffffffffffff1681526020019081526020016000208054905061080e919061328e565b8154811061081f5761081e613230565b5b9060005260206000200154600860006007600086815260200190815260200160002060030160029054906101000a900473ffffffffffffffffffffffffffffffffffffffff1673ffffffffffffffffffffffffffffffffffffffff1673ffffffffffffffffffffffffffffffffffffffff1681526020019081526020016000206007600085815260200190815260200160002060080154815481106108c7576108c6613230565b5b9060005260206000200181905550600860006007600085815260200190815260200160002060030160029054906101000a900473ffffffffffffffffffffffffffffffffffffffff1673ffffffffffffffffffffffffffffffffffffffff1673ffffffffffffffffffffffffffffffffffffffff16815260200190815260200160002080548061095a576109596132c2565b5b600190038181906000526020600020016000905590555050565b600033308860405160200161098b9392919061335a565b60405160208183030381529060405280519060200120905060006007600083815260200190815260200160002060040154146109fc576040517f08c379a00000000000000000000000000000000000000000000000000000000081526004016109f3906133e3565b60405180910390fd5b85871015610a3f576040517f08c379a0000000000000000000000000000000000000000000000000000000008152600401610a3690613475565b60405180910390fd5b6000806000600860008773ffffffffffffffffffffffffffffffffffffffff1673ffffffffffffffffffffffffffffffffffffffff168152602001908152602001600020805490501415610a965760009050610ae8565b6001600860008773ffffffffffffffffffffffffffffffffffffffff1673ffffffffffffffffffffffffffffffffffffffff16815260200190815260200160002080549050610ae5919061328e565b90505b87891115610af95760009150610afe565b600391505b6000600760008581526020019081526020016000206004015414610b57576040517f08c379a0000000000000000000000000000000000000000000000000000000008152600401610b4e906133e3565b60405180910390fd5b600080898b1015610ba45760048590806001815401808255809150506001900390600052602060002001600090919091909150556001600480549050610b9d919061328e565b9150610be2565b60058590806001815401808255809150506001900390600052602060002001600090919091909150556001600580549050610bdf919061328e565b91505b600860008873ffffffffffffffffffffffffffffffffffffffff1673ffffffffffffffffffffffffffffffffffffffff1681526020019081526020016000208590806001815401808255809150506001900390600052602060002001600090919091909150556001600860008973ffffffffffffffffffffffffffffffffffffffff1673ffffffffffffffffffffffffffffffffffffffff16815260200190815260200160002080549050610c97919061328e565b90506001859080600181540180825580915050600190039060005260206000200160009091909190915055600060018080549050610cd5919061328e565b90506040518061016001604052808781526020018c81526020018b8b8080601f016020809104026020016040519081016040528093929190818152602001838380828437600081840152601f19601f820116905080830192505050505050508152602001866004811115610d4c57610d4b612995565b5b815260200188151581526020018973ffffffffffffffffffffffffffffffffffffffff1681526020018d8152602001600115158152602001828152602001848152602001838152506007600088815260200190815260200160002060008201518160000155602082015181600101556040820151816002019080519060200190610dd7929190612570565b5060608201518160030160006101000a81548160ff02191690836004811115610e0357610e02612995565b5b021790555060808201518160030160016101000a81548160ff02191690831515021790555060a08201518160030160026101000a81548173ffffffffffffffffffffffffffffffffffffffff021916908373ffffffffffffffffffffffffffffffffffffffff16021790555060c0820151816004015560e08201518160050160006101000a81548160ff02191690831515021790555061010082015181600601556101208201518160070155610140820151816008015590505060018690806001815401808255809150506001900390600052602060002001600090919091909150557fa4f037a600c6d27b516e0f76a1fb987ef540098bd4b8a1f081595a2f83edd76b868d8d8d8d8a604051610f1f969594939291906134c2565b60405180910390a1505050505050505050505050565b6000806000606060008060076000888152602001908152602001600020600001546007600089815260200190815260200160002060010154600760008a815260200190815260200160002060040154600760008b8152602001908152602001600020600201600760008c815260200190815260200160002060030160009054906101000a900460ff16600760008d815260200190815260200160002060030160029054906101000a900473ffffffffffffffffffffffffffffffffffffffff168280546110019061354d565b80601f016020809104026020016040519081016040528092919081815260200182805461102d9061354d565b801561107a5780601f1061104f5761010080835404028352916020019161107a565b820191906000526020600020905b81548152906001019060200180831161105d57829003601f168201915b5050505050925095509550955095509550955091939550919395565b61109e61202d565b6110a860006120ab565b565b60606000805b80845111156110fd576110dc8482815181106110cf576110ce613230565b5b602002602001015161216f565b51826110e8919061357f565b915080806110f5906135d5565b9150506110b0565b5060008167ffffffffffffffff81111561111a57611119612a83565b5b60405190808252806020026020018201604052801561115357816020015b6111406125f6565b8152602001906001900390816111385790505b5090506000805b80865111156113b857600061118887838151811061117b5761117a613230565b5b602002602001015161216f565b905060005b80825111156113a357600760008383815181106111ad576111ac613230565b5b602002602001015181526020019081526020016000206040518061016001604052908160008201548152602001600182015481526020016002820180546111f39061354d565b80601f016020809104026020016040519081016040528092919081815260200182805461121f9061354d565b801561126c5780601f106112415761010080835404028352916020019161126c565b820191906000526020600020905b81548152906001019060200180831161124f57829003601f168201915b505050505081526020016003820160009054906101000a900460ff16600481111561129a57611299612995565b5b60048111156112ac576112ab612995565b5b81526020016003820160019054906101000a900460ff161515151581526020016003820160029054906101000a900473ffffffffffffffffffffffffffffffffffffffff1673ffffffffffffffffffffffffffffffffffffffff1673ffffffffffffffffffffffffffffffffffffffff168152602001600482015481526020016005820160009054906101000a900460ff16151515158152602001600682015481526020016007820154815260200160088201548152505085858151811061137757611376613230565b5b6020026020010181905250838061138d906135d5565b945050808061139b906135d5565b91505061118d565b505080806113b0906135d5565b91505061115a565b50819350505050919050565b60008060009054906101000a900473ffffffffffffffffffffffffffffffffffffffff16905090565b6113f561202d565b60006007600085815260200190815260200160002090508260405160200161141d919061365a565b60405160208183030381529060405280519060200120816002016040516020016114479190613705565b604051602081830303815290604052805190602001201461148e578260076000868152602001908152602001600020600201908051906020019061148c929190612570565b505b818160040154146114b5578160076000868152602001908152602001600020600401819055505b50505050565b60076020528060005260406000206000915090508060000154908060010154908060020180546114ea9061354d565b80601f01602080910402602001604051908101604052809291908181526020018280546115169061354d565b80156115635780601f1061153857610100808354040283529160200191611563565b820191906000526020600020905b81548152906001019060200180831161154657829003601f168201915b5050505050908060030160009054906101000a900460ff16908060030160019054906101000a900460ff16908060030160029054906101000a900473ffffffffffffffffffffffffffffffffffffffff16908060040154908060050160009054906101000a900460ff1690806006015490806007015490806008015490508b565b60606000600860008473ffffffffffffffffffffffffffffffffffffffff1673ffffffffffffffffffffffffffffffffffffffff16815260200190815260200160002080549050905060008167ffffffffffffffff81111561164957611648612a83565b5b60405190808252806020026020018201604052801561168257816020015b61166f6125f6565b8152602001906001900390816116675790505b50905060005b808311156118d05760076000600860008873ffffffffffffffffffffffffffffffffffffffff1673ffffffffffffffffffffffffffffffffffffffff16815260200190815260200160002083815481106116e5576116e4613230565b5b9060005260206000200154815260200190815260200160002060405180610160016040529081600082015481526020016001820154815260200160028201805461172e9061354d565b80601f016020809104026020016040519081016040528092919081815260200182805461175a9061354d565b80156117a75780601f1061177c576101008083540402835291602001916117a7565b820191906000526020600020905b81548152906001019060200180831161178a57829003601f168201915b505050505081526020016003820160009054906101000a900460ff1660048111156117d5576117d4612995565b5b60048111156117e7576117e6612995565b5b81526020016003820160019054906101000a900460ff161515151581526020016003820160029054906101000a900473ffffffffffffffffffffffffffffffffffffffff1673ffffffffffffffffffffffffffffffffffffffff1673ffffffffffffffffffffffffffffffffffffffff168152602001600482015481526020016005820160009054906101000a900460ff1615151515815260200160068201548152602001600782015481526020016008820154815250508282815181106118b2576118b1613230565b5b602002602001018190525080806118c8906135d5565b915050611688565b508092505050919050565b600860205281600052604060002081815481106118f757600080fd5b90600052602060002001600091509150505481565b6060600180548060200260200160405190810160405280929190818152602001828054801561195a57602002820191906000526020600020905b815481526020019060010190808311611946575b5050505050905090565b6060600060018054905067ffffffffffffffff81111561198757611986612a83565b5b6040519080825280602002602001820160405280156119c057816020015b6119ad6125f6565b8152602001906001900390816119a55790505b50905060005b806001805490501115611bd65760076000600183815481106119eb576119ea613230565b5b90600052602060002001548152602001908152602001600020604051806101600160405290816000820154815260200160018201548152602001600282018054611a349061354d565b80601f0160208091040260200160405190810160405280929190818152602001828054611a609061354d565b8015611aad5780601f10611a8257610100808354040283529160200191611aad565b820191906000526020600020905b815481529060010190602001808311611a9057829003601f168201915b505050505081526020016003820160009054906101000a900460ff166004811115611adb57611ada612995565b5b6004811115611aed57611aec612995565b5b81526020016003820160019054906101000a900460ff161515151581526020016003820160029054906101000a900473ffffffffffffffffffffffffffffffffffffffff1673ffffffffffffffffffffffffffffffffffffffff1673ffffffffffffffffffffffffffffffffffffffff168152602001600482015481526020016005820160009054906101000a900460ff161515151581526020016006820154815260200160078201548152602001600882015481525050828281518110611bb857611bb7613230565b5b60200260200101819052508080611bce906135d5565b9150506119c6565b508091505090565b611be661202d565b600073ffffffffffffffffffffffffffffffffffffffff168173ffffffffffffffffffffffffffffffffffffffff161415611c56576040517f08c379a0000000000000000000000000000000000000000000000000000000008152600401611c4d9061378e565b60405180910390fd5b611c5f816120ab565b50565b611c6a61202d565b60006007600083815260200190815260200160002090508060030160009054906101000a900460ff166004811115611ca557611ca4612995565b5b60006004811115611cb957611cb8612995565b5b1415611d65576004816007015481548110611cd757611cd6613230565b5b906000526020600020505060046001600480549050611cf6919061328e565b81548110611d0757611d06613230565b5b90600052602060002001546004826007015481548110611d2a57611d29613230565b5b90600052602060002001819055506004805480611d4a57611d496132c2565b5b60019003818190600052602060002001600090559055611fa7565b8060030160009054906101000a900460ff166004811115611d8957611d88612995565b5b60016004811115611d9d57611d9c612995565b5b1415611e265760026001600280549050611db7919061328e565b81548110611dc857611dc7613230565b5b90600052602060002001546002826007015481548110611deb57611dea613230565b5b90600052602060002001819055506002805480611e0b57611e0a6132c2565b5b60019003818190600052602060002001600090559055611fa6565b8060030160009054906101000a900460ff166004811115611e4a57611e49612995565b5b60026004811115611e5e57611e5d612995565b5b1415611ee75760036001600380549050611e78919061328e565b81548110611e8957611e88613230565b5b90600052602060002001546003826007015481548110611eac57611eab613230565b5b90600052602060002001819055506003805480611ecc57611ecb6132c2565b5b60019003818190600052602060002001600090559055611fa5565b8060030160009054906101000a900460ff166004811115611f0b57611f0a612995565b5b60036004811115611f1f57611f1e612995565b5b1415611fa45760056001600580549050611f39919061328e565b81548110611f4a57611f49613230565b5b90600052602060002001546005826007015481548110611f6d57611f6c613230565b5b90600052602060002001819055506005805480611f8d57611f8c6132c2565b5b600190038181906000526020600020016000905590555b5b5b5b611fb1838361238b565b826007600084815260200190815260200160002060030160006101000a81548160ff02191690836004811115611fea57611fe9612995565b5b02179055507ffe0e8b132b5ddc77b64ff225945ee03c9538f971bd711092820315625faf701882846040516120209291906137ae565b60405180910390a1505050565b612035612568565b73ffffffffffffffffffffffffffffffffffffffff166120536113c4565b73ffffffffffffffffffffffffffffffffffffffff16146120a9576040517f08c379a00000000000000000000000000000000000000000000000000000000081526004016120a090613823565b60405180910390fd5b565b60008060009054906101000a900473ffffffffffffffffffffffffffffffffffffffff169050816000806101000a81548173ffffffffffffffffffffffffffffffffffffffff021916908373ffffffffffffffffffffffffffffffffffffffff1602179055508173ffffffffffffffffffffffffffffffffffffffff168173ffffffffffffffffffffffffffffffffffffffff167f8be0079c531659141344cd1fd0a4f28419497f9722a3daafe3b4186f6b6457e060405160405180910390a35050565b606081600481111561218457612183612995565b5b6000600481111561219857612197612995565b5b14156121f65760048054806020026020016040519081016040528092919081815260200182805480156121ea57602002820191906000526020600020905b8154815260200190600101908083116121d6575b50505050509050612386565b81600481111561220957612208612995565b5b6001600481111561221d5761221c612995565b5b141561227b57600280548060200260200160405190810160405280929190818152602001828054801561226f57602002820191906000526020600020905b81548152602001906001019080831161225b575b50505050509050612386565b81600481111561228e5761228d612995565b5b600260048111156122a2576122a1612995565b5b14156123005760038054806020026020016040519081016040528092919081815260200182805480156122f457602002820191906000526020600020905b8154815260200190600101908083116122e0575b50505050509050612386565b81600481111561231357612312612995565b5b6003600481111561232757612326612995565b5b141561238557600580548060200260200160405190810160405280929190818152602001828054801561237957602002820191906000526020600020905b815481526020019060010190808311612365575b50505050509050612386565b5b919050565b60008260048111156123a05761239f612995565b5b600060048111156123b4576123b3612995565b5b14156123fc57600482908060018154018082558091505060019003906000526020600020016000909190919091505560016004805490506123f5919061328e565b9050612548565b82600481111561240f5761240e612995565b5b6001600481111561242357612422612995565b5b141561246b5760028290806001815401808255809150506001900390600052602060002001600090919091909150556001600280549050612464919061328e565b9050612547565b82600481111561247e5761247d612995565b5b6002600481111561249257612491612995565b5b14156124da57600382908060018154018082558091505060019003906000526020600020016000909190919091505560016003805490506124d3919061328e565b9050612546565b8260048111156124ed576124ec612995565b5b6003600481111561250157612500612995565b5b14156125455760058290806001815401808255809150506001900390600052602060002001600090919091909150556001600580549050612542919061328e565b90505b5b5b5b806007600084815260200190815260200160002060070181905550505050565b600033905090565b82805461257c9061354d565b90600052602060002090601f01602090048101928261259e57600085556125e5565b82601f106125b757805160ff19168380011785556125e5565b828001600101855582156125e5579182015b828111156125e45782518255916020019190600101906125c9565b5b5090506125f2919061267f565b5090565b6040518061016001604052806000801916815260200160008152602001606081526020016000600481111561262e5761262d612995565b5b8152602001600015158152602001600073ffffffffffffffffffffffffffffffffffffffff168152602001600081526020016000151581526020016000815260200160008152602001600081525090565b5b80821115612698576000816000905550600101612680565b5090565b6000604051905090565b600080fd5b600080fd5b6000819050919050565b6126c3816126b0565b81146126ce57600080fd5b50565b6000813590506126e0816126ba565b92915050565b6000602082840312156126fc576126fb6126a6565b5b600061270a848285016126d1565b91505092915050565b6000819050919050565b61272681612713565b811461273157600080fd5b50565b6000813590506127438161271d565b92915050565b600080fd5b600080fd5b600080fd5b60008083601f84011261276e5761276d612749565b5b8235905067ffffffffffffffff81111561278b5761278a61274e565b5b6020830191508360018202830111156127a7576127a6612753565b5b9250929050565b600073ffffffffffffffffffffffffffffffffffffffff82169050919050565b60006127d9826127ae565b9050919050565b6127e9816127ce565b81146127f457600080fd5b50565b600081359050612806816127e0565b92915050565b60008115159050919050565b6128218161280c565b811461282c57600080fd5b50565b60008135905061283e81612818565b92915050565b60008060008060008060a08789031215612861576128606126a6565b5b600061286f89828a01612734565b965050602061288089828a01612734565b955050604087013567ffffffffffffffff8111156128a1576128a06126ab565b5b6128ad89828a01612758565b945094505060606128c089828a016127f7565b92505060806128d189828a0161282f565b9150509295509295509295565b6128e7816126b0565b82525050565b6128f681612713565b82525050565b600081519050919050565b600082825260208201905092915050565b60005b8381101561293657808201518184015260208101905061291b565b83811115612945576000848401525b50505050565b6000601f19601f8301169050919050565b6000612967826128fc565b6129718185612907565b9350612981818560208601612918565b61298a8161294b565b840191505092915050565b7f4e487b7100000000000000000000000000000000000000000000000000000000600052602160045260246000fd5b600581106129d5576129d4612995565b5b50565b60008190506129e6826129c4565b919050565b60006129f6826129d8565b9050919050565b612a06816129eb565b82525050565b612a15816127ce565b82525050565b600060c082019050612a3060008301896128de565b612a3d60208301886128ed565b612a4a60408301876128ed565b8181036060830152612a5c818661295c565b9050612a6b60808301856129fd565b612a7860a0830184612a0c565b979650505050505050565b7f4e487b7100000000000000000000000000000000000000000000000000000000600052604160045260246000fd5b612abb8261294b565b810181811067ffffffffffffffff82111715612ada57612ad9612a83565b5b80604052505050565b6000612aed61269c565b9050612af98282612ab2565b919050565b600067ffffffffffffffff821115612b1957612b18612a83565b5b602082029050602081019050919050565b60058110612b3757600080fd5b50565b600081359050612b4981612b2a565b92915050565b6000612b62612b5d84612afe565b612ae3565b90508083825260208201905060208402830185811115612b8557612b84612753565b5b835b81811015612bae5780612b9a8882612b3a565b845260208401935050602081019050612b87565b5050509392505050565b600082601f830112612bcd57612bcc612749565b5b8135612bdd848260208601612b4f565b91505092915050565b600060208284031215612bfc57612bfb6126a6565b5b600082013567ffffffffffffffff811115612c1a57612c196126ab565b5b612c2684828501612bb8565b91505092915050565b600081519050919050565b600082825260208201905092915050565b6000819050602082019050919050565b612c64816126b0565b82525050565b612c7381612713565b82525050565b600082825260208201905092915050565b6000612c95826128fc565b612c9f8185612c79565b9350612caf818560208601612918565b612cb88161294b565b840191505092915050565b612ccc816129eb565b82525050565b612cdb8161280c565b82525050565b612cea816127ce565b82525050565b600061016083016000830151612d096000860182612c5b565b506020830151612d1c6020860182612c6a565b5060408301518482036040860152612d348282612c8a565b9150506060830151612d496060860182612cc3565b506080830151612d5c6080860182612cd2565b5060a0830151612d6f60a0860182612ce1565b5060c0830151612d8260c0860182612c6a565b5060e0830151612d9560e0860182612cd2565b50610100830151612daa610100860182612c6a565b50610120830151612dbf610120860182612c6a565b50610140830151612dd4610140860182612c6a565b508091505092915050565b6000612deb8383612cf0565b905092915050565b6000602082019050919050565b6000612e0b82612c2f565b612e158185612c3a565b935083602082028501612e2785612c4b565b8060005b85811015612e635784840389528151612e448582612ddf565b9450612e4f83612df3565b925060208a01995050600181019050612e2b565b50829750879550505050505092915050565b60006020820190508181036000830152612e8f8184612e00565b905092915050565b6000602082019050612eac6000830184612a0c565b92915050565b600080fd5b600067ffffffffffffffff821115612ed257612ed1612a83565b5b612edb8261294b565b9050602081019050919050565b82818337600083830152505050565b6000612f0a612f0584612eb7565b612ae3565b905082815260208101848484011115612f2657612f25612eb2565b5b612f31848285612ee8565b509392505050565b600082601f830112612f4e57612f4d612749565b5b8135612f5e848260208601612ef7565b91505092915050565b600080600060608486031215612f8057612f7f6126a6565b5b6000612f8e868287016126d1565b935050602084013567ffffffffffffffff811115612faf57612fae6126ab565b5b612fbb86828701612f39565b9250506040612fcc86828701612734565b9150509250925092565b612fdf8161280c565b82525050565b600061016082019050612ffb600083018e6128de565b613008602083018d6128ed565b818103604083015261301a818c61295c565b9050613029606083018b6129fd565b613036608083018a612fd6565b61304360a0830189612a0c565b61305060c08301886128ed565b61305d60e0830187612fd6565b61306b6101008301866128ed565b6130796101208301856128ed565b6130876101408301846128ed565b9c9b505050505050505050505050565b6000602082840312156130ad576130ac6126a6565b5b60006130bb848285016127f7565b91505092915050565b600080604083850312156130db576130da6126a6565b5b60006130e9858286016127f7565b92505060206130fa85828601612734565b9150509250929050565b600060208201905061311960008301846128de565b92915050565b600081519050919050565b600082825260208201905092915050565b6000819050602082019050919050565b60006131578383612c5b565b60208301905092915050565b6000602082019050919050565b600061317b8261311f565b613185818561312a565b93506131908361313b565b8060005b838110156131c15781516131a8888261314b565b97506131b383613163565b925050600181019050613194565b5085935050505092915050565b600060208201905081810360008301526131e88184613170565b905092915050565b60008060408385031215613207576132066126a6565b5b600061321585828601612b3a565b9250506020613226858286016126d1565b9150509250929050565b7f4e487b7100000000000000000000000000000000000000000000000000000000600052603260045260246000fd5b7f4e487b7100000000000000000000000000000000000000000000000000000000600052601160045260246000fd5b600061329982612713565b91506132a483612713565b9250828210156132b7576132b661325f565b5b828203905092915050565b7f4e487b7100000000000000000000000000000000000000000000000000000000600052603160045260246000fd5b60008160601b9050919050565b6000613309826132f1565b9050919050565b600061331b826132fe565b9050919050565b61333361332e826127ce565b613310565b82525050565b6000819050919050565b61335461334f82612713565b613339565b82525050565b60006133668286613322565b6014820191506133768285613322565b6014820191506133868284613343565b602082019150819050949350505050565b7f414c524541445920524547495354455245440000000000000000000000000000600082015250565b60006133cd601283612907565b91506133d882613397565b602082019050919050565b600060208201905081810360008301526133fc816133c0565b9050919050565b7f637265617465645f61742063616e6e6f7420626520677265617465722074686160008201527f6e2073746172745f617400000000000000000000000000000000000000000000602082015250565b600061345f602a83612907565b915061346a82613403565b604082019050919050565b6000602082019050818103600083015261348e81613452565b9050919050565b60006134a18385612907565b93506134ae838584612ee8565b6134b78361294b565b840190509392505050565b600060a0820190506134d760008301896128de565b6134e460208301886128ed565b6134f160408301876128ed565b8181036060830152613504818587613495565b905061351360808301846129fd565b979650505050505050565b7f4e487b7100000000000000000000000000000000000000000000000000000000600052602260045260246000fd5b6000600282049050600182168061356557607f821691505b602082108114156135795761357861351e565b5b50919050565b600061358a82612713565b915061359583612713565b9250827fffffffffffffffffffffffffffffffffffffffffffffffffffffffffffffffff038211156135ca576135c961325f565b5b828201905092915050565b60006135e082612713565b91507fffffffffffffffffffffffffffffffffffffffffffffffffffffffffffffffff8214156136135761361261325f565b5b600182019050919050565b600081905092915050565b6000613634826128fc565b61363e818561361e565b935061364e818560208601612918565b80840191505092915050565b60006136668284613629565b915081905092915050565b60008190508160005260206000209050919050565b600081546136938161354d565b61369d818661361e565b945060018216600081146136b857600181146136c9576136fc565b60ff198316865281860193506136fc565b6136d285613671565b60005b838110156136f4578154818901526001820191506020810190506136d5565b838801955050505b50505092915050565b60006137118284613686565b915081905092915050565b7f4f776e61626c653a206e6577206f776e657220697320746865207a65726f206160008201527f6464726573730000000000000000000000000000000000000000000000000000602082015250565b6000613778602683612907565b91506137838261371c565b604082019050919050565b600060208201905081810360008301526137a78161376b565b9050919050565b60006040820190506137c360008301856128de565b6137d060208301846129fd565b9392505050565b7f4f776e61626c653a2063616c6c6572206973206e6f7420746865206f776e6572600082015250565b600061380d602083612907565b9150613818826137d7565b602082019050919050565b6000602082019050818103600083015261383c81613800565b905091905056fea26469706673582212209aff5f5cd7d36713a1f2f2f32976aa8fbd3c8bb5c74ee9da56630e50de979bf764736f6c63430008090033","opcodes":"PUSH1 0x80 PUSH1 0x40 MSTORE CALLVALUE DUP1 ISZERO PUSH3 0x11 JUMPI PUSH1 0x0 DUP1 REVERT JUMPDEST POP PUSH3 0x32 PUSH3 0x26 PUSH3 0x38 PUSH1 0x20 SHL PUSH1 0x20 SHR JUMP JUMPDEST PUSH3 0x40 PUSH1 0x20 SHL PUSH1 0x20 SHR JUMP JUMPDEST PUSH3 0x104 JUMP JUMPDEST PUSH1 0x0 CALLER SWAP1 POP SWAP1 JUMP JUMPDEST PUSH1 0x0 DUP1 PUSH1 0x0 SWAP1 SLOAD SWAP1 PUSH2 0x100 EXP SWAP1 DIV PUSH20 0xFFFFFFFFFFFFFFFFFFFFFFFFFFFFFFFFFFFFFFFF AND SWAP1 POP DUP2 PUSH1 0x0 DUP1 PUSH2 0x100 EXP DUP2 SLOAD DUP2 PUSH20 0xFFFFFFFFFFFFFFFFFFFFFFFFFFFFFFFFFFFFFFFF MUL NOT AND SWAP1 DUP4 PUSH20 0xFFFFFFFFFFFFFFFFFFFFFFFFFFFFFFFFFFFFFFFF AND MUL OR SWAP1 SSTORE POP DUP2 PUSH20 0xFFFFFFFFFFFFFFFFFFFFFFFFFFFFFFFFFFFFFFFF AND DUP2 PUSH20 0xFFFFFFFFFFFFFFFFFFFFFFFFFFFFFFFFFFFFFFFF AND PUSH32 0x8BE0079C531659141344CD1FD0A4F28419497F9722A3DAAFE3B4186F6B6457E0 PUSH1 0x40 MLOAD PUSH1 0x40 MLOAD DUP1 SWAP2 SUB SWAP1 LOG3 POP POP JUMP JUMPDEST PUSH2 0x3879 DUP1 PUSH3 0x114 PUSH1 0x0 CODECOPY PUSH1 0x0 RETURN INVALID PUSH1 0x80 PUSH1 0x40 MSTORE CALLVALUE DUP1 ISZERO PUSH2 0x10 JUMPI PUSH1 0x0 DUP1 REVERT JUMPDEST POP PUSH1 0x4 CALLDATASIZE LT PUSH2 0xEA JUMPI PUSH1 0x0 CALLDATALOAD PUSH1 0xE0 SHR DUP1 PUSH4 0x9F737400 GT PUSH2 0x8C JUMPI DUP1 PUSH4 0xDE68F8A6 GT PUSH2 0x66 JUMPI DUP1 PUSH4 0xDE68F8A6 EQ PUSH2 0x26A JUMPI DUP1 PUSH4 0xE808A540 EQ PUSH2 0x288 JUMPI DUP1 PUSH4 0xF2FDE38B EQ PUSH2 0x2A6 JUMPI DUP1 PUSH4 0xF8B6B2D2 EQ PUSH2 0x2C2 JUMPI PUSH2 0xEA JUMP JUMPDEST DUP1 PUSH4 0x9F737400 EQ PUSH2 0x1D0 JUMPI DUP1 PUSH4 0xA476484C EQ PUSH2 0x20A JUMPI DUP1 PUSH4 0xC6E98D86 EQ PUSH2 0x23A JUMPI PUSH2 0xEA JUMP JUMPDEST DUP1 PUSH4 0x715018A6 GT PUSH2 0xC8 JUMPI DUP1 PUSH4 0x715018A6 EQ PUSH2 0x15C JUMPI DUP1 PUSH4 0x7FF45D83 EQ PUSH2 0x166 JUMPI DUP1 PUSH4 0x8DA5CB5B EQ PUSH2 0x196 JUMPI DUP1 PUSH4 0x93BDE70A EQ PUSH2 0x1B4 JUMPI PUSH2 0xEA JUMP JUMPDEST DUP1 PUSH4 0x2B61E205 EQ PUSH2 0xEF JUMPI DUP1 PUSH4 0x42093C18 EQ PUSH2 0x10B JUMPI DUP1 PUSH4 0x5B33C80D EQ PUSH2 0x127 JUMPI JUMPDEST PUSH1 0x0 DUP1 REVERT JUMPDEST PUSH2 0x109 PUSH1 0x4 DUP1 CALLDATASIZE SUB DUP2 ADD SWAP1 PUSH2 0x104 SWAP2 SWAP1 PUSH2 0x26E6 JUMP JUMPDEST PUSH2 0x2DE JUMP JUMPDEST STOP JUMPDEST PUSH2 0x125 PUSH1 0x4 DUP1 CALLDATASIZE SUB DUP2 ADD SWAP1 PUSH2 0x120 SWAP2 SWAP1 PUSH2 0x2844 JUMP JUMPDEST PUSH2 0x974 JUMP JUMPDEST STOP JUMPDEST PUSH2 0x141 PUSH1 0x4 DUP1 CALLDATASIZE SUB DUP2 ADD SWAP1 PUSH2 0x13C SWAP2 SWAP1 PUSH2 0x26E6 JUMP JUMPDEST PUSH2 0xF35 JUMP JUMPDEST PUSH1 0x40 MLOAD PUSH2 0x153 SWAP7 SWAP6 SWAP5 SWAP4 SWAP3 SWAP2 SWAP1 PUSH2 0x2A1B JUMP JUMPDEST PUSH1 0x40 MLOAD DUP1 SWAP2 SUB SWAP1 RETURN JUMPDEST PUSH2 0x164 PUSH2 0x1096 JUMP JUMPDEST STOP JUMPDEST PUSH2 0x180 PUSH1 0x4 DUP1 CALLDATASIZE SUB DUP2 ADD SWAP1 PUSH2 0x17B SWAP2 SWAP1 PUSH2 0x2BE6 JUMP JUMPDEST PUSH2 0x10AA JUMP JUMPDEST PUSH1 0x40 MLOAD PUSH2 0x18D SWAP2 SWAP1 PUSH2 0x2E75 JUMP JUMPDEST PUSH1 0x40 MLOAD DUP1 SWAP2 SUB SWAP1 RETURN JUMPDEST PUSH2 0x19E PUSH2 0x13C4 JUMP JUMPDEST PUSH1 0x40 MLOAD PUSH2 0x1AB SWAP2 SWAP1 PUSH2 0x2E97 JUMP JUMPDEST PUSH1 0x40 MLOAD DUP1 SWAP2 SUB SWAP1 RETURN JUMPDEST PUSH2 0x1CE PUSH1 0x4 DUP1 CALLDATASIZE SUB DUP2 ADD SWAP1 PUSH2 0x1C9 SWAP2 SWAP1 PUSH2 0x2F67 JUMP JUMPDEST PUSH2 0x13ED JUMP JUMPDEST STOP JUMPDEST PUSH2 0x1EA PUSH1 0x4 DUP1 CALLDATASIZE SUB DUP2 ADD SWAP1 PUSH2 0x1E5 SWAP2 SWAP1 PUSH2 0x26E6 JUMP JUMPDEST PUSH2 0x14BB JUMP JUMPDEST PUSH1 0x40 MLOAD PUSH2 0x201 SWAP12 SWAP11 SWAP10 SWAP9 SWAP8 SWAP7 SWAP6 SWAP5 SWAP4 SWAP3 SWAP2 SWAP1 PUSH2 0x2FE5 JUMP JUMPDEST PUSH1 0x40 MLOAD DUP1 SWAP2 SUB SWAP1 RETURN JUMPDEST PUSH2 0x224 PUSH1 0x4 DUP1 CALLDATASIZE SUB DUP2 ADD SWAP1 PUSH2 0x21F SWAP2 SWAP1 PUSH2 0x3097 JUMP JUMPDEST PUSH2 0x15E4 JUMP JUMPDEST PUSH1 0x40 MLOAD PUSH2 0x231 SWAP2 SWAP1 PUSH2 0x2E75 JUMP JUMPDEST PUSH1 0x40 MLOAD DUP1 SWAP2 SUB SWAP1 RETURN JUMPDEST PUSH2 0x254 PUSH1 0x4 DUP1 CALLDATASIZE SUB DUP2 ADD SWAP1 PUSH2 0x24F SWAP2 SWAP1 PUSH2 0x30C4 JUMP JUMPDEST PUSH2 0x18DB JUMP JUMPDEST PUSH1 0x40 MLOAD PUSH2 0x261 SWAP2 SWAP1 PUSH2 0x3104 JUMP JUMPDEST PUSH1 0x40 MLOAD DUP1 SWAP2 SUB SWAP1 RETURN JUMPDEST PUSH2 0x272 PUSH2 0x190C JUMP JUMPDEST PUSH1 0x40 MLOAD PUSH2 0x27F SWAP2 SWAP1 PUSH2 0x31CE JUMP JUMPDEST PUSH1 0x40 MLOAD DUP1 SWAP2 SUB SWAP1 RETURN JUMPDEST PUSH2 0x290 PUSH2 0x1964 JUMP JUMPDEST PUSH1 0x40 MLOAD PUSH2 0x29D SWAP2 SWAP1 PUSH2 0x2E75 JUMP JUMPDEST PUSH1 0x40 MLOAD DUP1 SWAP2 SUB SWAP1 RETURN JUMPDEST PUSH2 0x2C0 PUSH1 0x4 DUP1 CALLDATASIZE SUB DUP2 ADD SWAP1 PUSH2 0x2BB SWAP2 SWAP1 PUSH2 0x3097 JUMP JUMPDEST PUSH2 0x1BDE JUMP JUMPDEST STOP JUMPDEST PUSH2 0x2DC PUSH1 0x4 DUP1 CALLDATASIZE SUB DUP2 ADD SWAP1 PUSH2 0x2D7 SWAP2 SWAP1 PUSH2 0x31F0 JUMP JUMPDEST PUSH2 0x1C62 JUMP JUMPDEST STOP JUMPDEST PUSH2 0x2E6 PUSH2 0x202D JUMP JUMPDEST PUSH1 0x1 ISZERO ISZERO PUSH1 0x7 PUSH1 0x0 DUP4 DUP2 MSTORE PUSH1 0x20 ADD SWAP1 DUP2 MSTORE PUSH1 0x20 ADD PUSH1 0x0 KECCAK256 PUSH1 0x5 ADD PUSH1 0x0 SWAP1 SLOAD SWAP1 PUSH2 0x100 EXP SWAP1 DIV PUSH1 0xFF AND ISZERO ISZERO EQ PUSH2 0x31A JUMPI PUSH1 0x0 DUP1 REVERT JUMPDEST PUSH1 0x0 PUSH1 0x7 PUSH1 0x0 DUP4 DUP2 MSTORE PUSH1 0x20 ADD SWAP1 DUP2 MSTORE PUSH1 0x20 ADD PUSH1 0x0 KECCAK256 SWAP1 POP DUP1 PUSH1 0x3 ADD PUSH1 0x0 SWAP1 SLOAD SWAP1 PUSH2 0x100 EXP SWAP1 DIV PUSH1 0xFF AND PUSH1 0x4 DUP2 GT ISZERO PUSH2 0x355 JUMPI PUSH2 0x354 PUSH2 0x2995 JUMP JUMPDEST JUMPDEST PUSH1 0x0 PUSH1 0x4 DUP2 GT ISZERO PUSH2 0x369 JUMPI PUSH2 0x368 PUSH2 0x2995 JUMP JUMPDEST JUMPDEST EQ ISZERO PUSH2 0x415 JUMPI PUSH1 0x4 DUP2 PUSH1 0x7 ADD SLOAD DUP2 SLOAD DUP2 LT PUSH2 0x387 JUMPI PUSH2 0x386 PUSH2 0x3230 JUMP JUMPDEST JUMPDEST SWAP1 PUSH1 0x0 MSTORE PUSH1 0x20 PUSH1 0x0 KECCAK256 POP POP PUSH1 0x4 PUSH1 0x1 PUSH1 0x4 DUP1 SLOAD SWAP1 POP PUSH2 0x3A6 SWAP2 SWAP1 PUSH2 0x328E JUMP JUMPDEST DUP2 SLOAD DUP2 LT PUSH2 0x3B7 JUMPI PUSH2 0x3B6 PUSH2 0x3230 JUMP JUMPDEST JUMPDEST SWAP1 PUSH1 0x0 MSTORE PUSH1 0x20 PUSH1 0x0 KECCAK256 ADD SLOAD PUSH1 0x4 DUP3 PUSH1 0x7 ADD SLOAD DUP2 SLOAD DUP2 LT PUSH2 0x3DA JUMPI PUSH2 0x3D9 PUSH2 0x3230 JUMP JUMPDEST JUMPDEST SWAP1 PUSH1 0x0 MSTORE PUSH1 0x20 PUSH1 0x0 KECCAK256 ADD DUP2 SWAP1 SSTORE POP PUSH1 0x4 DUP1 SLOAD DUP1 PUSH2 0x3FA JUMPI PUSH2 0x3F9 PUSH2 0x32C2 JUMP JUMPDEST JUMPDEST PUSH1 0x1 SWAP1 SUB DUP2 DUP2 SWAP1 PUSH1 0x0 MSTORE PUSH1 0x20 PUSH1 0x0 KECCAK256 ADD PUSH1 0x0 SWAP1 SSTORE SWAP1 SSTORE PUSH2 0x657 JUMP JUMPDEST DUP1 PUSH1 0x3 ADD PUSH1 0x0 SWAP1 SLOAD SWAP1 PUSH2 0x100 EXP SWAP1 DIV PUSH1 0xFF AND PUSH1 0x4 DUP2 GT ISZERO PUSH2 0x439 JUMPI PUSH2 0x438 PUSH2 0x2995 JUMP JUMPDEST JUMPDEST PUSH1 0x1 PUSH1 0x4 DUP2 GT ISZERO PUSH2 0x44D JUMPI PUSH2 0x44C PUSH2 0x2995 JUMP JUMPDEST JUMPDEST EQ ISZERO PUSH2 0x4D6 JUMPI PUSH1 0x2 PUSH1 0x1 PUSH1 0x2 DUP1 SLOAD SWAP1 POP PUSH2 0x467 SWAP2 SWAP1 PUSH2 0x328E JUMP JUMPDEST DUP2 SLOAD DUP2 LT PUSH2 0x478 JUMPI PUSH2 0x477 PUSH2 0x3230 JUMP JUMPDEST JUMPDEST SWAP1 PUSH1 0x0 MSTORE PUSH1 0x20 PUSH1 0x0 KECCAK256 ADD SLOAD PUSH1 0x2 DUP3 PUSH1 0x7 ADD SLOAD DUP2 SLOAD DUP2 LT PUSH2 0x49B JUMPI PUSH2 0x49A PUSH2 0x3230 JUMP JUMPDEST JUMPDEST SWAP1 PUSH1 0x0 MSTORE PUSH1 0x20 PUSH1 0x0 KECCAK256 ADD DUP2 SWAP1 SSTORE POP PUSH1 0x2 DUP1 SLOAD DUP1 PUSH2 0x4BB JUMPI PUSH2 0x4BA PUSH2 0x32C2 JUMP JUMPDEST JUMPDEST PUSH1 0x1 SWAP1 SUB DUP2 DUP2 SWAP1 PUSH1 0x0 MSTORE PUSH1 0x20 PUSH1 0x0 KECCAK256 ADD PUSH1 0x0 SWAP1 SSTORE SWAP1 SSTORE PUSH2 0x656 JUMP JUMPDEST DUP1 PUSH1 0x3 ADD PUSH1 0x0 SWAP1 SLOAD SWAP1 PUSH2 0x100 EXP SWAP1 DIV PUSH1 0xFF AND PUSH1 0x4 DUP2 GT ISZERO PUSH2 0x4FA JUMPI PUSH2 0x4F9 PUSH2 0x2995 JUMP JUMPDEST JUMPDEST PUSH1 0x2 PUSH1 0x4 DUP2 GT ISZERO PUSH2 0x50E JUMPI PUSH2 0x50D PUSH2 0x2995 JUMP JUMPDEST JUMPDEST EQ ISZERO PUSH2 0x597 JUMPI PUSH1 0x3 PUSH1 0x1 PUSH1 0x3 DUP1 SLOAD SWAP1 POP PUSH2 0x528 SWAP2 SWAP1 PUSH2 0x328E JUMP JUMPDEST DUP2 SLOAD DUP2 LT PUSH2 0x539 JUMPI PUSH2 0x538 PUSH2 0x3230 JUMP JUMPDEST JUMPDEST SWAP1 PUSH1 0x0 MSTORE PUSH1 0x20 PUSH1 0x0 KECCAK256 ADD SLOAD PUSH1 0x3 DUP3 PUSH1 0x7 ADD SLOAD DUP2 SLOAD DUP2 LT PUSH2 0x55C JUMPI PUSH2 0x55B PUSH2 0x3230 JUMP JUMPDEST JUMPDEST SWAP1 PUSH1 0x0 MSTORE PUSH1 0x20 PUSH1 0x0 KECCAK256 ADD DUP2 SWAP1 SSTORE POP PUSH1 0x3 DUP1 SLOAD DUP1 PUSH2 0x57C JUMPI PUSH2 0x57B PUSH2 0x32C2 JUMP JUMPDEST JUMPDEST PUSH1 0x1 SWAP1 SUB DUP2 DUP2 SWAP1 PUSH1 0x0 MSTORE PUSH1 0x20 PUSH1 0x0 KECCAK256 ADD PUSH1 0x0 SWAP1 SSTORE SWAP1 SSTORE PUSH2 0x655 JUMP JUMPDEST DUP1 PUSH1 0x3 ADD PUSH1 0x0 SWAP1 SLOAD SWAP1 PUSH2 0x100 EXP SWAP1 DIV PUSH1 0xFF AND PUSH1 0x4 DUP2 GT ISZERO PUSH2 0x5BB JUMPI PUSH2 0x5BA PUSH2 0x2995 JUMP JUMPDEST JUMPDEST PUSH1 0x3 PUSH1 0x4 DUP2 GT ISZERO PUSH2 0x5CF JUMPI PUSH2 0x5CE PUSH2 0x2995 JUMP JUMPDEST JUMPDEST EQ ISZERO PUSH2 0x654 JUMPI PUSH1 0x5 PUSH1 0x1 PUSH1 0x5 DUP1 SLOAD SWAP1 POP PUSH2 0x5E9 SWAP2 SWAP1 PUSH2 0x328E JUMP JUMPDEST DUP2 SLOAD DUP2 LT PUSH2 0x5FA JUMPI PUSH2 0x5F9 PUSH2 0x3230 JUMP JUMPDEST JUMPDEST SWAP1 PUSH1 0x0 MSTORE PUSH1 0x20 PUSH1 0x0 KECCAK256 ADD SLOAD PUSH1 0x5 DUP3 PUSH1 0x7 ADD SLOAD DUP2 SLOAD DUP2 LT PUSH2 0x61D JUMPI PUSH2 0x61C PUSH2 0x3230 JUMP JUMPDEST JUMPDEST SWAP1 PUSH1 0x0 MSTORE PUSH1 0x20 PUSH1 0x0 KECCAK256 ADD DUP2 SWAP1 SSTORE POP PUSH1 0x5 DUP1 SLOAD DUP1 PUSH2 0x63D JUMPI PUSH2 0x63C PUSH2 0x32C2 JUMP JUMPDEST JUMPDEST PUSH1 0x1 SWAP1 SUB DUP2 DUP2 SWAP1 PUSH1 0x0 MSTORE PUSH1 0x20 PUSH1 0x0 KECCAK256 ADD PUSH1 0x0 SWAP1 SSTORE SWAP1 SSTORE JUMPDEST JUMPDEST JUMPDEST JUMPDEST PUSH1 0x0 PUSH1 0x7 PUSH1 0x0 DUP5 DUP2 MSTORE PUSH1 0x20 ADD SWAP1 DUP2 MSTORE PUSH1 0x20 ADD PUSH1 0x0 KECCAK256 PUSH1 0x5 ADD PUSH1 0x0 PUSH2 0x100 EXP DUP2 SLOAD DUP2 PUSH1 0xFF MUL NOT AND SWAP1 DUP4 ISZERO ISZERO MUL OR SWAP1 SSTORE POP PUSH1 0x1 DUP1 DUP1 DUP1 SLOAD SWAP1 POP PUSH2 0x698 SWAP2 SWAP1 PUSH2 0x328E JUMP JUMPDEST DUP2 SLOAD DUP2 LT PUSH2 0x6A9 JUMPI PUSH2 0x6A8 PUSH2 0x3230 JUMP JUMPDEST JUMPDEST SWAP1 PUSH1 0x0 MSTORE PUSH1 0x20 PUSH1 0x0 KECCAK256 ADD SLOAD PUSH1 0x1 PUSH1 0x7 PUSH1 0x0 DUP6 DUP2 MSTORE PUSH1 0x20 ADD SWAP1 DUP2 MSTORE PUSH1 0x20 ADD PUSH1 0x0 KECCAK256 PUSH1 0x6 ADD SLOAD DUP2 SLOAD DUP2 LT PUSH2 0x6DE JUMPI PUSH2 0x6DD PUSH2 0x3230 JUMP JUMPDEST JUMPDEST SWAP1 PUSH1 0x0 MSTORE PUSH1 0x20 PUSH1 0x0 KECCAK256 ADD DUP2 SWAP1 SSTORE POP PUSH1 0x1 DUP1 SLOAD DUP1 PUSH2 0x6FE JUMPI PUSH2 0x6FD PUSH2 0x32C2 JUMP JUMPDEST JUMPDEST PUSH1 0x1 SWAP1 SUB DUP2 DUP2 SWAP1 PUSH1 0x0 MSTORE PUSH1 0x20 PUSH1 0x0 KECCAK256 ADD PUSH1 0x0 SWAP1 SSTORE SWAP1 SSTORE PUSH1 0x8 PUSH1 0x0 PUSH1 0x7 PUSH1 0x0 DUP6 DUP2 MSTORE PUSH1 0x20 ADD SWAP1 DUP2 MSTORE PUSH1 0x20 ADD PUSH1 0x0 KECCAK256 PUSH1 0x3 ADD PUSH1 0x2 SWAP1 SLOAD SWAP1 PUSH2 0x100 EXP SWAP1 DIV PUSH20 0xFFFFFFFFFFFFFFFFFFFFFFFFFFFFFFFFFFFFFFFF AND PUSH20 0xFFFFFFFFFFFFFFFFFFFFFFFFFFFFFFFFFFFFFFFF AND PUSH20 0xFFFFFFFFFFFFFFFFFFFFFFFFFFFFFFFFFFFFFFFF AND DUP2 MSTORE PUSH1 0x20 ADD SWAP1 DUP2 MSTORE PUSH1 0x20 ADD PUSH1 0x0 KECCAK256 PUSH1 0x1 PUSH1 0x8 PUSH1 0x0 PUSH1 0x7 PUSH1 0x0 DUP8 DUP2 MSTORE PUSH1 0x20 ADD SWAP1 DUP2 MSTORE PUSH1 0x20 ADD PUSH1 0x0 KECCAK256 PUSH1 0x3 ADD PUSH1 0x2 SWAP1 SLOAD SWAP1 PUSH2 0x100 EXP SWAP1 DIV PUSH20 0xFFFFFFFFFFFFFFFFFFFFFFFFFFFFFFFFFFFFFFFF AND PUSH20 0xFFFFFFFFFFFFFFFFFFFFFFFFFFFFFFFFFFFFFFFF AND PUSH20 0xFFFFFFFFFFFFFFFFFFFFFFFFFFFFFFFFFFFFFFFF AND DUP2 MSTORE PUSH1 0x20 ADD SWAP1 DUP2 MSTORE PUSH1 0x20 ADD PUSH1 0x0 KECCAK256 DUP1 SLOAD SWAP1 POP PUSH2 0x80E SWAP2 SWAP1 PUSH2 0x328E JUMP JUMPDEST DUP2 SLOAD DUP2 LT PUSH2 0x81F JUMPI PUSH2 0x81E PUSH2 0x3230 JUMP JUMPDEST JUMPDEST SWAP1 PUSH1 0x0 MSTORE PUSH1 0x20 PUSH1 0x0 KECCAK256 ADD SLOAD PUSH1 0x8 PUSH1 0x0 PUSH1 0x7 PUSH1 0x0 DUP7 DUP2 MSTORE PUSH1 0x20 ADD SWAP1 DUP2 MSTORE PUSH1 0x20 ADD PUSH1 0x0 KECCAK256 PUSH1 0x3 ADD PUSH1 0x2 SWAP1 SLOAD SWAP1 PUSH2 0x100 EXP SWAP1 DIV PUSH20 0xFFFFFFFFFFFFFFFFFFFFFFFFFFFFFFFFFFFFFFFF AND PUSH20 0xFFFFFFFFFFFFFFFFFFFFFFFFFFFFFFFFFFFFFFFF AND PUSH20 0xFFFFFFFFFFFFFFFFFFFFFFFFFFFFFFFFFFFFFFFF AND DUP2 MSTORE PUSH1 0x20 ADD SWAP1 DUP2 MSTORE PUSH1 0x20 ADD PUSH1 0x0 KECCAK256 PUSH1 0x7 PUSH1 0x0 DUP6 DUP2 MSTORE PUSH1 0x20 ADD SWAP1 DUP2 MSTORE PUSH1 0x20 ADD PUSH1 0x0 KECCAK256 PUSH1 0x8 ADD SLOAD DUP2 SLOAD DUP2 LT PUSH2 0x8C7 JUMPI PUSH2 0x8C6 PUSH2 0x3230 JUMP JUMPDEST JUMPDEST SWAP1 PUSH1 0x0 MSTORE PUSH1 0x20 PUSH1 0x0 KECCAK256 ADD DUP2 SWAP1 SSTORE POP PUSH1 0x8 PUSH1 0x0 PUSH1 0x7 PUSH1 0x0 DUP6 DUP2 MSTORE PUSH1 0x20 ADD SWAP1 DUP2 MSTORE PUSH1 0x20 ADD PUSH1 0x0 KECCAK256 PUSH1 0x3 ADD PUSH1 0x2 SWAP1 SLOAD SWAP1 PUSH2 0x100 EXP SWAP1 DIV PUSH20 0xFFFFFFFFFFFFFFFFFFFFFFFFFFFFFFFFFFFFFFFF AND PUSH20 0xFFFFFFFFFFFFFFFFFFFFFFFFFFFFFFFFFFFFFFFF AND PUSH20 0xFFFFFFFFFFFFFFFFFFFFFFFFFFFFFFFFFFFFFFFF AND DUP2 MSTORE PUSH1 0x20 ADD SWAP1 DUP2 MSTORE PUSH1 0x20 ADD PUSH1 0x0 KECCAK256 DUP1 SLOAD DUP1 PUSH2 0x95A JUMPI PUSH2 0x959 PUSH2 0x32C2 JUMP JUMPDEST JUMPDEST PUSH1 0x1 SWAP1 SUB DUP2 DUP2 SWAP1 PUSH1 0x0 MSTORE PUSH1 0x20 PUSH1 0x0 KECCAK256 ADD PUSH1 0x0 SWAP1 SSTORE SWAP1 SSTORE POP POP JUMP JUMPDEST PUSH1 0x0 CALLER ADDRESS DUP9 PUSH1 0x40 MLOAD PUSH1 0x20 ADD PUSH2 0x98B SWAP4 SWAP3 SWAP2 SWAP1 PUSH2 0x335A JUMP JUMPDEST PUSH1 0x40 MLOAD PUSH1 0x20 DUP2 DUP4 SUB SUB DUP2 MSTORE SWAP1 PUSH1 0x40 MSTORE DUP1 MLOAD SWAP1 PUSH1 0x20 ADD KECCAK256 SWAP1 POP PUSH1 0x0 PUSH1 0x7 PUSH1 0x0 DUP4 DUP2 MSTORE PUSH1 0x20 ADD SWAP1 DUP2 MSTORE PUSH1 0x20 ADD PUSH1 0x0 KECCAK256 PUSH1 0x4 ADD SLOAD EQ PUSH2 0x9FC JUMPI PUSH1 0x40 MLOAD PUSH32 0x8C379A000000000000000000000000000000000000000000000000000000000 DUP2 MSTORE PUSH1 0x4 ADD PUSH2 0x9F3 SWAP1 PUSH2 0x33E3 JUMP JUMPDEST PUSH1 0x40 MLOAD DUP1 SWAP2 SUB SWAP1 REVERT JUMPDEST DUP6 DUP8 LT ISZERO PUSH2 0xA3F JUMPI PUSH1 0x40 MLOAD PUSH32 0x8C379A000000000000000000000000000000000000000000000000000000000 DUP2 MSTORE PUSH1 0x4 ADD PUSH2 0xA36 SWAP1 PUSH2 0x3475 JUMP JUMPDEST PUSH1 0x40 MLOAD DUP1 SWAP2 SUB SWAP1 REVERT JUMPDEST PUSH1 0x0 DUP1 PUSH1 0x0 PUSH1 0x8 PUSH1 0x0 DUP8 PUSH20 0xFFFFFFFFFFFFFFFFFFFFFFFFFFFFFFFFFFFFFFFF AND PUSH20 0xFFFFFFFFFFFFFFFFFFFFFFFFFFFFFFFFFFFFFFFF AND DUP2 MSTORE PUSH1 0x20 ADD SWAP1 DUP2 MSTORE PUSH1 0x20 ADD PUSH1 0x0 KECCAK256 DUP1 SLOAD SWAP1 POP EQ ISZERO PUSH2 0xA96 JUMPI PUSH1 0x0 SWAP1 POP PUSH2 0xAE8 JUMP JUMPDEST PUSH1 0x1 PUSH1 0x8 PUSH1 0x0 DUP8 PUSH20 0xFFFFFFFFFFFFFFFFFFFFFFFFFFFFFFFFFFFFFFFF AND PUSH20 0xFFFFFFFFFFFFFFFFFFFFFFFFFFFFFFFFFFFFFFFF AND DUP2 MSTORE PUSH1 0x20 ADD SWAP1 DUP2 MSTORE PUSH1 0x20 ADD PUSH1 0x0 KECCAK256 DUP1 SLOAD SWAP1 POP PUSH2 0xAE5 SWAP2 SWAP1 PUSH2 0x328E JUMP JUMPDEST SWAP1 POP JUMPDEST DUP8 DUP10 GT ISZERO PUSH2 0xAF9 JUMPI PUSH1 0x0 SWAP2 POP PUSH2 0xAFE JUMP JUMPDEST PUSH1 0x3 SWAP2 POP JUMPDEST PUSH1 0x0 PUSH1 0x7 PUSH1 0x0 DUP6 DUP2 MSTORE PUSH1 0x20 ADD SWAP1 DUP2 MSTORE PUSH1 0x20 ADD PUSH1 0x0 KECCAK256 PUSH1 0x4 ADD SLOAD EQ PUSH2 0xB57 JUMPI PUSH1 0x40 MLOAD PUSH32 0x8C379A000000000000000000000000000000000000000000000000000000000 DUP2 MSTORE PUSH1 0x4 ADD PUSH2 0xB4E SWAP1 PUSH2 0x33E3 JUMP JUMPDEST PUSH1 0x40 MLOAD DUP1 SWAP2 SUB SWAP1 REVERT JUMPDEST PUSH1 0x0 DUP1 DUP10 DUP12 LT ISZERO PUSH2 0xBA4 JUMPI PUSH1 0x4 DUP6 SWAP1 DUP1 PUSH1 0x1 DUP2 SLOAD ADD DUP1 DUP3 SSTORE DUP1 SWAP2 POP POP PUSH1 0x1 SWAP1 SUB SWAP1 PUSH1 0x0 MSTORE PUSH1 0x20 PUSH1 0x0 KECCAK256 ADD PUSH1 0x0 SWAP1 SWAP2 SWAP1 SWAP2 SWAP1 SWAP2 POP SSTORE PUSH1 0x1 PUSH1 0x4 DUP1 SLOAD SWAP1 POP PUSH2 0xB9D SWAP2 SWAP1 PUSH2 0x328E JUMP JUMPDEST SWAP2 POP PUSH2 0xBE2 JUMP JUMPDEST PUSH1 0x5 DUP6 SWAP1 DUP1 PUSH1 0x1 DUP2 SLOAD ADD DUP1 DUP3 SSTORE DUP1 SWAP2 POP POP PUSH1 0x1 SWAP1 SUB SWAP1 PUSH1 0x0 MSTORE PUSH1 0x20 PUSH1 0x0 KECCAK256 ADD PUSH1 0x0 SWAP1 SWAP2 SWAP1 SWAP2 SWAP1 SWAP2 POP SSTORE PUSH1 0x1 PUSH1 0x5 DUP1 SLOAD SWAP1 POP PUSH2 0xBDF SWAP2 SWAP1 PUSH2 0x328E JUMP JUMPDEST SWAP2 POP JUMPDEST PUSH1 0x8 PUSH1 0x0 DUP9 PUSH20 0xFFFFFFFFFFFFFFFFFFFFFFFFFFFFFFFFFFFFFFFF AND PUSH20 0xFFFFFFFFFFFFFFFFFFFFFFFFFFFFFFFFFFFFFFFF AND DUP2 MSTORE PUSH1 0x20 ADD SWAP1 DUP2 MSTORE PUSH1 0x20 ADD PUSH1 0x0 KECCAK256 DUP6 SWAP1 DUP1 PUSH1 0x1 DUP2 SLOAD ADD DUP1 DUP3 SSTORE DUP1 SWAP2 POP POP PUSH1 0x1 SWAP1 SUB SWAP1 PUSH1 0x0 MSTORE PUSH1 0x20 PUSH1 0x0 KECCAK256 ADD PUSH1 0x0 SWAP1 SWAP2 SWAP1 SWAP2 SWAP1 SWAP2 POP SSTORE PUSH1 0x1 PUSH1 0x8 PUSH1 0x0 DUP10 PUSH20 0xFFFFFFFFFFFFFFFFFFFFFFFFFFFFFFFFFFFFFFFF AND PUSH20 0xFFFFFFFFFFFFFFFFFFFFFFFFFFFFFFFFFFFFFFFF AND DUP2 MSTORE PUSH1 0x20 ADD SWAP1 DUP2 MSTORE PUSH1 0x20 ADD PUSH1 0x0 KECCAK256 DUP1 SLOAD SWAP1 POP PUSH2 0xC97 SWAP2 SWAP1 PUSH2 0x328E JUMP JUMPDEST SWAP1 POP PUSH1 0x1 DUP6 SWAP1 DUP1 PUSH1 0x1 DUP2 SLOAD ADD DUP1 DUP3 SSTORE DUP1 SWAP2 POP POP PUSH1 0x1 SWAP1 SUB SWAP1 PUSH1 0x0 MSTORE PUSH1 0x20 PUSH1 0x0 KECCAK256 ADD PUSH1 0x0 SWAP1 SWAP2 SWAP1 SWAP2 SWAP1 SWAP2 POP SSTORE PUSH1 0x0 PUSH1 0x1 DUP1 DUP1 SLOAD SWAP1 POP PUSH2 0xCD5 SWAP2 SWAP1 PUSH2 0x328E JUMP JUMPDEST SWAP1 POP PUSH1 0x40 MLOAD DUP1 PUSH2 0x160 ADD PUSH1 0x40 MSTORE DUP1 DUP8 DUP2 MSTORE PUSH1 0x20 ADD DUP13 DUP2 MSTORE PUSH1 0x20 ADD DUP12 DUP12 DUP1 DUP1 PUSH1 0x1F ADD PUSH1 0x20 DUP1 SWAP2 DIV MUL PUSH1 0x20 ADD PUSH1 0x40 MLOAD SWAP1 DUP2 ADD PUSH1 0x40 MSTORE DUP1 SWAP4 SWAP3 SWAP2 SWAP1 DUP2 DUP2 MSTORE PUSH1 0x20 ADD DUP4 DUP4 DUP1 DUP3 DUP5 CALLDATACOPY PUSH1 0x0 DUP2 DUP5 ADD MSTORE PUSH1 0x1F NOT PUSH1 0x1F DUP3 ADD AND SWAP1 POP DUP1 DUP4 ADD SWAP3 POP POP POP POP POP POP POP DUP2 MSTORE PUSH1 0x20 ADD DUP7 PUSH1 0x4 DUP2 GT ISZERO PUSH2 0xD4C JUMPI PUSH2 0xD4B PUSH2 0x2995 JUMP JUMPDEST JUMPDEST DUP2 MSTORE PUSH1 0x20 ADD DUP9 ISZERO ISZERO DUP2 MSTORE PUSH1 0x20 ADD DUP10 PUSH20 0xFFFFFFFFFFFFFFFFFFFFFFFFFFFFFFFFFFFFFFFF AND DUP2 MSTORE PUSH1 0x20 ADD DUP14 DUP2 MSTORE PUSH1 0x20 ADD PUSH1 0x1 ISZERO ISZERO DUP2 MSTORE PUSH1 0x20 ADD DUP3 DUP2 MSTORE PUSH1 0x20 ADD DUP5 DUP2 MSTORE PUSH1 0x20 ADD DUP4 DUP2 MSTORE POP PUSH1 0x7 PUSH1 0x0 DUP9 DUP2 MSTORE PUSH1 0x20 ADD SWAP1 DUP2 MSTORE PUSH1 0x20 ADD PUSH1 0x0 KECCAK256 PUSH1 0x0 DUP3 ADD MLOAD DUP2 PUSH1 0x0 ADD SSTORE PUSH1 0x20 DUP3 ADD MLOAD DUP2 PUSH1 0x1 ADD SSTORE PUSH1 0x40 DUP3 ADD MLOAD DUP2 PUSH1 0x2 ADD SWAP1 DUP1 MLOAD SWAP1 PUSH1 0x20 ADD SWAP1 PUSH2 0xDD7 SWAP3 SWAP2 SWAP1 PUSH2 0x2570 JUMP JUMPDEST POP PUSH1 0x60 DUP3 ADD MLOAD DUP2 PUSH1 0x3 ADD PUSH1 0x0 PUSH2 0x100 EXP DUP2 SLOAD DUP2 PUSH1 0xFF MUL NOT AND SWAP1 DUP4 PUSH1 0x4 DUP2 GT ISZERO PUSH2 0xE03 JUMPI PUSH2 0xE02 PUSH2 0x2995 JUMP JUMPDEST JUMPDEST MUL OR SWAP1 SSTORE POP PUSH1 0x80 DUP3 ADD MLOAD DUP2 PUSH1 0x3 ADD PUSH1 0x1 PUSH2 0x100 EXP DUP2 SLOAD DUP2 PUSH1 0xFF MUL NOT AND SWAP1 DUP4 ISZERO ISZERO MUL OR SWAP1 SSTORE POP PUSH1 0xA0 DUP3 ADD MLOAD DUP2 PUSH1 0x3 ADD PUSH1 0x2 PUSH2 0x100 EXP DUP2 SLOAD DUP2 PUSH20 0xFFFFFFFFFFFFFFFFFFFFFFFFFFFFFFFFFFFFFFFF MUL NOT AND SWAP1 DUP4 PUSH20 0xFFFFFFFFFFFFFFFFFFFFFFFFFFFFFFFFFFFFFFFF AND MUL OR SWAP1 SSTORE POP PUSH1 0xC0 DUP3 ADD MLOAD DUP2 PUSH1 0x4 ADD SSTORE PUSH1 0xE0 DUP3 ADD MLOAD DUP2 PUSH1 0x5 ADD PUSH1 0x0 PUSH2 0x100 EXP DUP2 SLOAD DUP2 PUSH1 0xFF MUL NOT AND SWAP1 DUP4 ISZERO ISZERO MUL OR SWAP1 SSTORE POP PUSH2 0x100 DUP3 ADD MLOAD DUP2 PUSH1 0x6 ADD SSTORE PUSH2 0x120 DUP3 ADD MLOAD DUP2 PUSH1 0x7 ADD SSTORE PUSH2 0x140 DUP3 ADD MLOAD DUP2 PUSH1 0x8 ADD SSTORE SWAP1 POP POP PUSH1 0x1 DUP7 SWAP1 DUP1 PUSH1 0x1 DUP2 SLOAD ADD DUP1 DUP3 SSTORE DUP1 SWAP2 POP POP PUSH1 0x1 SWAP1 SUB SWAP1 PUSH1 0x0 MSTORE PUSH1 0x20 PUSH1 0x0 KECCAK256 ADD PUSH1 0x0 SWAP1 SWAP2 SWAP1 SWAP2 SWAP1 SWAP2 POP SSTORE PUSH32 0xA4F037A600C6D27B516E0F76A1FB987EF540098BD4B8A1F081595A2F83EDD76B DUP7 DUP14 DUP14 DUP14 DUP14 DUP11 PUSH1 0x40 MLOAD PUSH2 0xF1F SWAP7 SWAP6 SWAP5 SWAP4 SWAP3 SWAP2 SWAP1 PUSH2 0x34C2 JUMP JUMPDEST PUSH1 0x40 MLOAD DUP1 SWAP2 SUB SWAP1 LOG1 POP POP POP POP POP POP POP POP POP POP POP POP JUMP JUMPDEST PUSH1 0x0 DUP1 PUSH1 0x0 PUSH1 0x60 PUSH1 0x0 DUP1 PUSH1 0x7 PUSH1 0x0 DUP9 DUP2 MSTORE PUSH1 0x20 ADD SWAP1 DUP2 MSTORE PUSH1 0x20 ADD PUSH1 0x0 KECCAK256 PUSH1 0x0 ADD SLOAD PUSH1 0x7 PUSH1 0x0 DUP10 DUP2 MSTORE PUSH1 0x20 ADD SWAP1 DUP2 MSTORE PUSH1 0x20 ADD PUSH1 0x0 KECCAK256 PUSH1 0x1 ADD SLOAD PUSH1 0x7 PUSH1 0x0 DUP11 DUP2 MSTORE PUSH1 0x20 ADD SWAP1 DUP2 MSTORE PUSH1 0x20 ADD PUSH1 0x0 KECCAK256 PUSH1 0x4 ADD SLOAD PUSH1 0x7 PUSH1 0x0 DUP12 DUP2 MSTORE PUSH1 0x20 ADD SWAP1 DUP2 MSTORE PUSH1 0x20 ADD PUSH1 0x0 KECCAK256 PUSH1 0x2 ADD PUSH1 0x7 PUSH1 0x0 DUP13 DUP2 MSTORE PUSH1 0x20 ADD SWAP1 DUP2 MSTORE PUSH1 0x20 ADD PUSH1 0x0 KECCAK256 PUSH1 0x3 ADD PUSH1 0x0 SWAP1 SLOAD SWAP1 PUSH2 0x100 EXP SWAP1 DIV PUSH1 0xFF AND PUSH1 0x7 PUSH1 0x0 DUP14 DUP2 MSTORE PUSH1 0x20 ADD SWAP1 DUP2 MSTORE PUSH1 0x20 ADD PUSH1 0x0 KECCAK256 PUSH1 0x3 ADD PUSH1 0x2 SWAP1 SLOAD SWAP1 PUSH2 0x100 EXP SWAP1 DIV PUSH20 0xFFFFFFFFFFFFFFFFFFFFFFFFFFFFFFFFFFFFFFFF AND DUP3 DUP1 SLOAD PUSH2 0x1001 SWAP1 PUSH2 0x354D JUMP JUMPDEST DUP1 PUSH1 0x1F ADD PUSH1 0x20 DUP1 SWAP2 DIV MUL PUSH1 0x20 ADD PUSH1 0x40 MLOAD SWAP1 DUP2 ADD PUSH1 0x40 MSTORE DUP1 SWAP3 SWAP2 SWAP1 DUP2 DUP2 MSTORE PUSH1 0x20 ADD DUP3 DUP1 SLOAD PUSH2 0x102D SWAP1 PUSH2 0x354D JUMP JUMPDEST DUP1 ISZERO PUSH2 0x107A JUMPI DUP1 PUSH1 0x1F LT PUSH2 0x104F JUMPI PUSH2 0x100 DUP1 DUP4 SLOAD DIV MUL DUP4 MSTORE SWAP2 PUSH1 0x20 ADD SWAP2 PUSH2 0x107A JUMP JUMPDEST DUP3 ADD SWAP2 SWAP1 PUSH1 0x0 MSTORE PUSH1 0x20 PUSH1 0x0 KECCAK256 SWAP1 JUMPDEST DUP2 SLOAD DUP2 MSTORE SWAP1 PUSH1 0x1 ADD SWAP1 PUSH1 0x20 ADD DUP1 DUP4 GT PUSH2 0x105D JUMPI DUP3 SWAP1 SUB PUSH1 0x1F AND DUP3 ADD SWAP2 JUMPDEST POP POP POP POP POP SWAP3 POP SWAP6 POP SWAP6 POP SWAP6 POP SWAP6 POP SWAP6 POP SWAP6 POP SWAP2 SWAP4 SWAP6 POP SWAP2 SWAP4 SWAP6 JUMP JUMPDEST PUSH2 0x109E PUSH2 0x202D JUMP JUMPDEST PUSH2 0x10A8 PUSH1 0x0 PUSH2 0x20AB JUMP JUMPDEST JUMP JUMPDEST PUSH1 0x60 PUSH1 0x0 DUP1 JUMPDEST DUP1 DUP5 MLOAD GT ISZERO PUSH2 0x10FD JUMPI PUSH2 0x10DC DUP5 DUP3 DUP2 MLOAD DUP2 LT PUSH2 0x10CF JUMPI PUSH2 0x10CE PUSH2 0x3230 JUMP JUMPDEST JUMPDEST PUSH1 0x20 MUL PUSH1 0x20 ADD ADD MLOAD PUSH2 0x216F JUMP JUMPDEST MLOAD DUP3 PUSH2 0x10E8 SWAP2 SWAP1 PUSH2 0x357F JUMP JUMPDEST SWAP2 POP DUP1 DUP1 PUSH2 0x10F5 SWAP1 PUSH2 0x35D5 JUMP JUMPDEST SWAP2 POP POP PUSH2 0x10B0 JUMP JUMPDEST POP PUSH1 0x0 DUP2 PUSH8 0xFFFFFFFFFFFFFFFF DUP2 GT ISZERO PUSH2 0x111A JUMPI PUSH2 0x1119 PUSH2 0x2A83 JUMP JUMPDEST JUMPDEST PUSH1 0x40 MLOAD SWAP1 DUP1 DUP3 MSTORE DUP1 PUSH1 0x20 MUL PUSH1 0x20 ADD DUP3 ADD PUSH1 0x40 MSTORE DUP1 ISZERO PUSH2 0x1153 JUMPI DUP2 PUSH1 0x20 ADD JUMPDEST PUSH2 0x1140 PUSH2 0x25F6 JUMP JUMPDEST DUP2 MSTORE PUSH1 0x20 ADD SWAP1 PUSH1 0x1 SWAP1 SUB SWAP1 DUP2 PUSH2 0x1138 JUMPI SWAP1 POP JUMPDEST POP SWAP1 POP PUSH1 0x0 DUP1 JUMPDEST DUP1 DUP7 MLOAD GT ISZERO PUSH2 0x13B8 JUMPI PUSH1 0x0 PUSH2 0x1188 DUP8 DUP4 DUP2 MLOAD DUP2 LT PUSH2 0x117B JUMPI PUSH2 0x117A PUSH2 0x3230 JUMP JUMPDEST JUMPDEST PUSH1 0x20 MUL PUSH1 0x20 ADD ADD MLOAD PUSH2 0x216F JUMP JUMPDEST SWAP1 POP PUSH1 0x0 JUMPDEST DUP1 DUP3 MLOAD GT ISZERO PUSH2 0x13A3 JUMPI PUSH1 0x7 PUSH1 0x0 DUP4 DUP4 DUP2 MLOAD DUP2 LT PUSH2 0x11AD JUMPI PUSH2 0x11AC PUSH2 0x3230 JUMP JUMPDEST JUMPDEST PUSH1 0x20 MUL PUSH1 0x20 ADD ADD MLOAD DUP2 MSTORE PUSH1 0x20 ADD SWAP1 DUP2 MSTORE PUSH1 0x20 ADD PUSH1 0x0 KECCAK256 PUSH1 0x40 MLOAD DUP1 PUSH2 0x160 ADD PUSH1 0x40 MSTORE SWAP1 DUP2 PUSH1 0x0 DUP3 ADD SLOAD DUP2 MSTORE PUSH1 0x20 ADD PUSH1 0x1 DUP3 ADD SLOAD DUP2 MSTORE PUSH1 0x20 ADD PUSH1 0x2 DUP3 ADD DUP1 SLOAD PUSH2 0x11F3 SWAP1 PUSH2 0x354D JUMP JUMPDEST DUP1 PUSH1 0x1F ADD PUSH1 0x20 DUP1 SWAP2 DIV MUL PUSH1 0x20 ADD PUSH1 0x40 MLOAD SWAP1 DUP2 ADD PUSH1 0x40 MSTORE DUP1 SWAP3 SWAP2 SWAP1 DUP2 DUP2 MSTORE PUSH1 0x20 ADD DUP3 DUP1 SLOAD PUSH2 0x121F SWAP1 PUSH2 0x354D JUMP JUMPDEST DUP1 ISZERO PUSH2 0x126C JUMPI DUP1 PUSH1 0x1F LT PUSH2 0x1241 JUMPI PUSH2 0x100 DUP1 DUP4 SLOAD DIV MUL DUP4 MSTORE SWAP2 PUSH1 0x20 ADD SWAP2 PUSH2 0x126C JUMP JUMPDEST DUP3 ADD SWAP2 SWAP1 PUSH1 0x0 MSTORE PUSH1 0x20 PUSH1 0x0 KECCAK256 SWAP1 JUMPDEST DUP2 SLOAD DUP2 MSTORE SWAP1 PUSH1 0x1 ADD SWAP1 PUSH1 0x20 ADD DUP1 DUP4 GT PUSH2 0x124F JUMPI DUP3 SWAP1 SUB PUSH1 0x1F AND DUP3 ADD SWAP2 JUMPDEST POP POP POP POP POP DUP2 MSTORE PUSH1 0x20 ADD PUSH1 0x3 DUP3 ADD PUSH1 0x0 SWAP1 SLOAD SWAP1 PUSH2 0x100 EXP SWAP1 DIV PUSH1 0xFF AND PUSH1 0x4 DUP2 GT ISZERO PUSH2 0x129A JUMPI PUSH2 0x1299 PUSH2 0x2995 JUMP JUMPDEST JUMPDEST PUSH1 0x4 DUP2 GT ISZERO PUSH2 0x12AC JUMPI PUSH2 0x12AB PUSH2 0x2995 JUMP JUMPDEST JUMPDEST DUP2 MSTORE PUSH1 0x20 ADD PUSH1 0x3 DUP3 ADD PUSH1 0x1 SWAP1 SLOAD SWAP1 PUSH2 0x100 EXP SWAP1 DIV PUSH1 0xFF AND ISZERO ISZERO ISZERO ISZERO DUP2 MSTORE PUSH1 0x20 ADD PUSH1 0x3 DUP3 ADD PUSH1 0x2 SWAP1 SLOAD SWAP1 PUSH2 0x100 EXP SWAP1 DIV PUSH20 0xFFFFFFFFFFFFFFFFFFFFFFFFFFFFFFFFFFFFFFFF AND PUSH20 0xFFFFFFFFFFFFFFFFFFFFFFFFFFFFFFFFFFFFFFFF AND PUSH20 0xFFFFFFFFFFFFFFFFFFFFFFFFFFFFFFFFFFFFFFFF AND DUP2 MSTORE PUSH1 0x20 ADD PUSH1 0x4 DUP3 ADD SLOAD DUP2 MSTORE PUSH1 0x20 ADD PUSH1 0x5 DUP3 ADD PUSH1 0x0 SWAP1 SLOAD SWAP1 PUSH2 0x100 EXP SWAP1 DIV PUSH1 0xFF AND ISZERO ISZERO ISZERO ISZERO DUP2 MSTORE PUSH1 0x20 ADD PUSH1 0x6 DUP3 ADD SLOAD DUP2 MSTORE PUSH1 0x20 ADD PUSH1 0x7 DUP3 ADD SLOAD DUP2 MSTORE PUSH1 0x20 ADD PUSH1 0x8 DUP3 ADD SLOAD DUP2 MSTORE POP POP DUP6 DUP6 DUP2 MLOAD DUP2 LT PUSH2 0x1377 JUMPI PUSH2 0x1376 PUSH2 0x3230 JUMP JUMPDEST JUMPDEST PUSH1 0x20 MUL PUSH1 0x20 ADD ADD DUP2 SWAP1 MSTORE POP DUP4 DUP1 PUSH2 0x138D SWAP1 PUSH2 0x35D5 JUMP JUMPDEST SWAP5 POP POP DUP1 DUP1 PUSH2 0x139B SWAP1 PUSH2 0x35D5 JUMP JUMPDEST SWAP2 POP POP PUSH2 0x118D JUMP JUMPDEST POP POP DUP1 DUP1 PUSH2 0x13B0 SWAP1 PUSH2 0x35D5 JUMP JUMPDEST SWAP2 POP POP PUSH2 0x115A JUMP JUMPDEST POP DUP2 SWAP4 POP POP POP POP SWAP2 SWAP1 POP JUMP JUMPDEST PUSH1 0x0 DUP1 PUSH1 0x0 SWAP1 SLOAD SWAP1 PUSH2 0x100 EXP SWAP1 DIV PUSH20 0xFFFFFFFFFFFFFFFFFFFFFFFFFFFFFFFFFFFFFFFF AND SWAP1 POP SWAP1 JUMP JUMPDEST PUSH2 0x13F5 PUSH2 0x202D JUMP JUMPDEST PUSH1 0x0 PUSH1 0x7 PUSH1 0x0 DUP6 DUP2 MSTORE PUSH1 0x20 ADD SWAP1 DUP2 MSTORE PUSH1 0x20 ADD PUSH1 0x0 KECCAK256 SWAP1 POP DUP3 PUSH1 0x40 MLOAD PUSH1 0x20 ADD PUSH2 0x141D SWAP2 SWAP1 PUSH2 0x365A JUMP JUMPDEST PUSH1 0x40 MLOAD PUSH1 0x20 DUP2 DUP4 SUB SUB DUP2 MSTORE SWAP1 PUSH1 0x40 MSTORE DUP1 MLOAD SWAP1 PUSH1 0x20 ADD KECCAK256 DUP2 PUSH1 0x2 ADD PUSH1 0x40 MLOAD PUSH1 0x20 ADD PUSH2 0x1447 SWAP2 SWAP1 PUSH2 0x3705 JUMP JUMPDEST PUSH1 0x40 MLOAD PUSH1 0x20 DUP2 DUP4 SUB SUB DUP2 MSTORE SWAP1 PUSH1 0x40 MSTORE DUP1 MLOAD SWAP1 PUSH1 0x20 ADD KECCAK256 EQ PUSH2 0x148E JUMPI DUP3 PUSH1 0x7 PUSH1 0x0 DUP7 DUP2 MSTORE PUSH1 0x20 ADD SWAP1 DUP2 MSTORE PUSH1 0x20 ADD PUSH1 0x0 KECCAK256 PUSH1 0x2 ADD SWAP1 DUP1 MLOAD SWAP1 PUSH1 0x20 ADD SWAP1 PUSH2 0x148C SWAP3 SWAP2 SWAP1 PUSH2 0x2570 JUMP JUMPDEST POP JUMPDEST DUP2 DUP2 PUSH1 0x4 ADD SLOAD EQ PUSH2 0x14B5 JUMPI DUP2 PUSH1 0x7 PUSH1 0x0 DUP7 DUP2 MSTORE PUSH1 0x20 ADD SWAP1 DUP2 MSTORE PUSH1 0x20 ADD PUSH1 0x0 KECCAK256 PUSH1 0x4 ADD DUP2 SWAP1 SSTORE POP JUMPDEST POP POP POP POP JUMP JUMPDEST PUSH1 0x7 PUSH1 0x20 MSTORE DUP1 PUSH1 0x0 MSTORE PUSH1 0x40 PUSH1 0x0 KECCAK256 PUSH1 0x0 SWAP2 POP SWAP1 POP DUP1 PUSH1 0x0 ADD SLOAD SWAP1 DUP1 PUSH1 0x1 ADD SLOAD SWAP1 DUP1 PUSH1 0x2 ADD DUP1 SLOAD PUSH2 0x14EA SWAP1 PUSH2 0x354D JUMP JUMPDEST DUP1 PUSH1 0x1F ADD PUSH1 0x20 DUP1 SWAP2 DIV MUL PUSH1 0x20 ADD PUSH1 0x40 MLOAD SWAP1 DUP2 ADD PUSH1 0x40 MSTORE DUP1 SWAP3 SWAP2 SWAP1 DUP2 DUP2 MSTORE PUSH1 0x20 ADD DUP3 DUP1 SLOAD PUSH2 0x1516 SWAP1 PUSH2 0x354D JUMP JUMPDEST DUP1 ISZERO PUSH2 0x1563 JUMPI DUP1 PUSH1 0x1F LT PUSH2 0x1538 JUMPI PUSH2 0x100 DUP1 DUP4 SLOAD DIV MUL DUP4 MSTORE SWAP2 PUSH1 0x20 ADD SWAP2 PUSH2 0x1563 JUMP JUMPDEST DUP3 ADD SWAP2 SWAP1 PUSH1 0x0 MSTORE PUSH1 0x20 PUSH1 0x0 KECCAK256 SWAP1 JUMPDEST DUP2 SLOAD DUP2 MSTORE SWAP1 PUSH1 0x1 ADD SWAP1 PUSH1 0x20 ADD DUP1 DUP4 GT PUSH2 0x1546 JUMPI DUP3 SWAP1 SUB PUSH1 0x1F AND DUP3 ADD SWAP2 JUMPDEST POP POP POP POP POP SWAP1 DUP1 PUSH1 0x3 ADD PUSH1 0x0 SWAP1 SLOAD SWAP1 PUSH2 0x100 EXP SWAP1 DIV PUSH1 0xFF AND SWAP1 DUP1 PUSH1 0x3 ADD PUSH1 0x1 SWAP1 SLOAD SWAP1 PUSH2 0x100 EXP SWAP1 DIV PUSH1 0xFF AND SWAP1 DUP1 PUSH1 0x3 ADD PUSH1 0x2 SWAP1 SLOAD SWAP1 PUSH2 0x100 EXP SWAP1 DIV PUSH20 0xFFFFFFFFFFFFFFFFFFFFFFFFFFFFFFFFFFFFFFFF AND SWAP1 DUP1 PUSH1 0x4 ADD SLOAD SWAP1 DUP1 PUSH1 0x5 ADD PUSH1 0x0 SWAP1 SLOAD SWAP1 PUSH2 0x100 EXP SWAP1 DIV PUSH1 0xFF AND SWAP1 DUP1 PUSH1 0x6 ADD SLOAD SWAP1 DUP1 PUSH1 0x7 ADD SLOAD SWAP1 DUP1 PUSH1 0x8 ADD SLOAD SWAP1 POP DUP12 JUMP JUMPDEST PUSH1 0x60 PUSH1 0x0 PUSH1 0x8 PUSH1 0x0 DUP5 PUSH20 0xFFFFFFFFFFFFFFFFFFFFFFFFFFFFFFFFFFFFFFFF AND PUSH20 0xFFFFFFFFFFFFFFFFFFFFFFFFFFFFFFFFFFFFFFFF AND DUP2 MSTORE PUSH1 0x20 ADD SWAP1 DUP2 MSTORE PUSH1 0x20 ADD PUSH1 0x0 KECCAK256 DUP1 SLOAD SWAP1 POP SWAP1 POP PUSH1 0x0 DUP2 PUSH8 0xFFFFFFFFFFFFFFFF DUP2 GT ISZERO PUSH2 0x1649 JUMPI PUSH2 0x1648 PUSH2 0x2A83 JUMP JUMPDEST JUMPDEST PUSH1 0x40 MLOAD SWAP1 DUP1 DUP3 MSTORE DUP1 PUSH1 0x20 MUL PUSH1 0x20 ADD DUP3 ADD PUSH1 0x40 MSTORE DUP1 ISZERO PUSH2 0x1682 JUMPI DUP2 PUSH1 0x20 ADD JUMPDEST PUSH2 0x166F PUSH2 0x25F6 JUMP JUMPDEST DUP2 MSTORE PUSH1 0x20 ADD SWAP1 PUSH1 0x1 SWAP1 SUB SWAP1 DUP2 PUSH2 0x1667 JUMPI SWAP1 POP JUMPDEST POP SWAP1 POP PUSH1 0x0 JUMPDEST DUP1 DUP4 GT ISZERO PUSH2 0x18D0 JUMPI PUSH1 0x7 PUSH1 0x0 PUSH1 0x8 PUSH1 0x0 DUP9 PUSH20 0xFFFFFFFFFFFFFFFFFFFFFFFFFFFFFFFFFFFFFFFF AND PUSH20 0xFFFFFFFFFFFFFFFFFFFFFFFFFFFFFFFFFFFFFFFF AND DUP2 MSTORE PUSH1 0x20 ADD SWAP1 DUP2 MSTORE PUSH1 0x20 ADD PUSH1 0x0 KECCAK256 DUP4 DUP2 SLOAD DUP2 LT PUSH2 0x16E5 JUMPI PUSH2 0x16E4 PUSH2 0x3230 JUMP JUMPDEST JUMPDEST SWAP1 PUSH1 0x0 MSTORE PUSH1 0x20 PUSH1 0x0 KECCAK256 ADD SLOAD DUP2 MSTORE PUSH1 0x20 ADD SWAP1 DUP2 MSTORE PUSH1 0x20 ADD PUSH1 0x0 KECCAK256 PUSH1 0x40 MLOAD DUP1 PUSH2 0x160 ADD PUSH1 0x40 MSTORE SWAP1 DUP2 PUSH1 0x0 DUP3 ADD SLOAD DUP2 MSTORE PUSH1 0x20 ADD PUSH1 0x1 DUP3 ADD SLOAD DUP2 MSTORE PUSH1 0x20 ADD PUSH1 0x2 DUP3 ADD DUP1 SLOAD PUSH2 0x172E SWAP1 PUSH2 0x354D JUMP JUMPDEST DUP1 PUSH1 0x1F ADD PUSH1 0x20 DUP1 SWAP2 DIV MUL PUSH1 0x20 ADD PUSH1 0x40 MLOAD SWAP1 DUP2 ADD PUSH1 0x40 MSTORE DUP1 SWAP3 SWAP2 SWAP1 DUP2 DUP2 MSTORE PUSH1 0x20 ADD DUP3 DUP1 SLOAD PUSH2 0x175A SWAP1 PUSH2 0x354D JUMP JUMPDEST DUP1 ISZERO PUSH2 0x17A7 JUMPI DUP1 PUSH1 0x1F LT PUSH2 0x177C JUMPI PUSH2 0x100 DUP1 DUP4 SLOAD DIV MUL DUP4 MSTORE SWAP2 PUSH1 0x20 ADD SWAP2 PUSH2 0x17A7 JUMP JUMPDEST DUP3 ADD SWAP2 SWAP1 PUSH1 0x0 MSTORE PUSH1 0x20 PUSH1 0x0 KECCAK256 SWAP1 JUMPDEST DUP2 SLOAD DUP2 MSTORE SWAP1 PUSH1 0x1 ADD SWAP1 PUSH1 0x20 ADD DUP1 DUP4 GT PUSH2 0x178A JUMPI DUP3 SWAP1 SUB PUSH1 0x1F AND DUP3 ADD SWAP2 JUMPDEST POP POP POP POP POP DUP2 MSTORE PUSH1 0x20 ADD PUSH1 0x3 DUP3 ADD PUSH1 0x0 SWAP1 SLOAD SWAP1 PUSH2 0x100 EXP SWAP1 DIV PUSH1 0xFF AND PUSH1 0x4 DUP2 GT ISZERO PUSH2 0x17D5 JUMPI PUSH2 0x17D4 PUSH2 0x2995 JUMP JUMPDEST JUMPDEST PUSH1 0x4 DUP2 GT ISZERO PUSH2 0x17E7 JUMPI PUSH2 0x17E6 PUSH2 0x2995 JUMP JUMPDEST JUMPDEST DUP2 MSTORE PUSH1 0x20 ADD PUSH1 0x3 DUP3 ADD PUSH1 0x1 SWAP1 SLOAD SWAP1 PUSH2 0x100 EXP SWAP1 DIV PUSH1 0xFF AND ISZERO ISZERO ISZERO ISZERO DUP2 MSTORE PUSH1 0x20 ADD PUSH1 0x3 DUP3 ADD PUSH1 0x2 SWAP1 SLOAD SWAP1 PUSH2 0x100 EXP SWAP1 DIV PUSH20 0xFFFFFFFFFFFFFFFFFFFFFFFFFFFFFFFFFFFFFFFF AND PUSH20 0xFFFFFFFFFFFFFFFFFFFFFFFFFFFFFFFFFFFFFFFF AND PUSH20 0xFFFFFFFFFFFFFFFFFFFFFFFFFFFFFFFFFFFFFFFF AND DUP2 MSTORE PUSH1 0x20 ADD PUSH1 0x4 DUP3 ADD SLOAD DUP2 MSTORE PUSH1 0x20 ADD PUSH1 0x5 DUP3 ADD PUSH1 0x0 SWAP1 SLOAD SWAP1 PUSH2 0x100 EXP SWAP1 DIV PUSH1 0xFF AND ISZERO ISZERO ISZERO ISZERO DUP2 MSTORE PUSH1 0x20 ADD PUSH1 0x6 DUP3 ADD SLOAD DUP2 MSTORE PUSH1 0x20 ADD PUSH1 0x7 DUP3 ADD SLOAD DUP2 MSTORE PUSH1 0x20 ADD PUSH1 0x8 DUP3 ADD SLOAD DUP2 MSTORE POP POP DUP3 DUP3 DUP2 MLOAD DUP2 LT PUSH2 0x18B2 JUMPI PUSH2 0x18B1 PUSH2 0x3230 JUMP JUMPDEST JUMPDEST PUSH1 0x20 MUL PUSH1 0x20 ADD ADD DUP2 SWAP1 MSTORE POP DUP1 DUP1 PUSH2 0x18C8 SWAP1 PUSH2 0x35D5 JUMP JUMPDEST SWAP2 POP POP PUSH2 0x1688 JUMP JUMPDEST POP DUP1 SWAP3 POP POP POP SWAP2 SWAP1 POP JUMP JUMPDEST PUSH1 0x8 PUSH1 0x20 MSTORE DUP2 PUSH1 0x0 MSTORE PUSH1 0x40 PUSH1 0x0 KECCAK256 DUP2 DUP2 SLOAD DUP2 LT PUSH2 0x18F7 JUMPI PUSH1 0x0 DUP1 REVERT JUMPDEST SWAP1 PUSH1 0x0 MSTORE PUSH1 0x20 PUSH1 0x0 KECCAK256 ADD PUSH1 0x0 SWAP2 POP SWAP2 POP POP SLOAD DUP2 JUMP JUMPDEST PUSH1 0x60 PUSH1 0x1 DUP1 SLOAD DUP1 PUSH1 0x20 MUL PUSH1 0x20 ADD PUSH1 0x40 MLOAD SWAP1 DUP2 ADD PUSH1 0x40 MSTORE DUP1 SWAP3 SWAP2 SWAP1 DUP2 DUP2 MSTORE PUSH1 0x20 ADD DUP3 DUP1 SLOAD DUP1 ISZERO PUSH2 0x195A JUMPI PUSH1 0x20 MUL DUP3 ADD SWAP2 SWAP1 PUSH1 0x0 MSTORE PUSH1 0x20 PUSH1 0x0 KECCAK256 SWAP1 JUMPDEST DUP2 SLOAD DUP2 MSTORE PUSH1 0x20 ADD SWAP1 PUSH1 0x1 ADD SWAP1 DUP1 DUP4 GT PUSH2 0x1946 JUMPI JUMPDEST POP POP POP POP POP SWAP1 POP SWAP1 JUMP JUMPDEST PUSH1 0x60 PUSH1 0x0 PUSH1 0x1 DUP1 SLOAD SWAP1 POP PUSH8 0xFFFFFFFFFFFFFFFF DUP2 GT ISZERO PUSH2 0x1987 JUMPI PUSH2 0x1986 PUSH2 0x2A83 JUMP JUMPDEST JUMPDEST PUSH1 0x40 MLOAD SWAP1 DUP1 DUP3 MSTORE DUP1 PUSH1 0x20 MUL PUSH1 0x20 ADD DUP3 ADD PUSH1 0x40 MSTORE DUP1 ISZERO PUSH2 0x19C0 JUMPI DUP2 PUSH1 0x20 ADD JUMPDEST PUSH2 0x19AD PUSH2 0x25F6 JUMP JUMPDEST DUP2 MSTORE PUSH1 0x20 ADD SWAP1 PUSH1 0x1 SWAP1 SUB SWAP1 DUP2 PUSH2 0x19A5 JUMPI SWAP1 POP JUMPDEST POP SWAP1 POP PUSH1 0x0 JUMPDEST DUP1 PUSH1 0x1 DUP1 SLOAD SWAP1 POP GT ISZERO PUSH2 0x1BD6 JUMPI PUSH1 0x7 PUSH1 0x0 PUSH1 0x1 DUP4 DUP2 SLOAD DUP2 LT PUSH2 0x19EB JUMPI PUSH2 0x19EA PUSH2 0x3230 JUMP JUMPDEST JUMPDEST SWAP1 PUSH1 0x0 MSTORE PUSH1 0x20 PUSH1 0x0 KECCAK256 ADD SLOAD DUP2 MSTORE PUSH1 0x20 ADD SWAP1 DUP2 MSTORE PUSH1 0x20 ADD PUSH1 0x0 KECCAK256 PUSH1 0x40 MLOAD DUP1 PUSH2 0x160 ADD PUSH1 0x40 MSTORE SWAP1 DUP2 PUSH1 0x0 DUP3 ADD SLOAD DUP2 MSTORE PUSH1 0x20 ADD PUSH1 0x1 DUP3 ADD SLOAD DUP2 MSTORE PUSH1 0x20 ADD PUSH1 0x2 DUP3 ADD DUP1 SLOAD PUSH2 0x1A34 SWAP1 PUSH2 0x354D JUMP JUMPDEST DUP1 PUSH1 0x1F ADD PUSH1 0x20 DUP1 SWAP2 DIV MUL PUSH1 0x20 ADD PUSH1 0x40 MLOAD SWAP1 DUP2 ADD PUSH1 0x40 MSTORE DUP1 SWAP3 SWAP2 SWAP1 DUP2 DUP2 MSTORE PUSH1 0x20 ADD DUP3 DUP1 SLOAD PUSH2 0x1A60 SWAP1 PUSH2 0x354D JUMP JUMPDEST DUP1 ISZERO PUSH2 0x1AAD JUMPI DUP1 PUSH1 0x1F LT PUSH2 0x1A82 JUMPI PUSH2 0x100 DUP1 DUP4 SLOAD DIV MUL DUP4 MSTORE SWAP2 PUSH1 0x20 ADD SWAP2 PUSH2 0x1AAD JUMP JUMPDEST DUP3 ADD SWAP2 SWAP1 PUSH1 0x0 MSTORE PUSH1 0x20 PUSH1 0x0 KECCAK256 SWAP1 JUMPDEST DUP2 SLOAD DUP2 MSTORE SWAP1 PUSH1 0x1 ADD SWAP1 PUSH1 0x20 ADD DUP1 DUP4 GT PUSH2 0x1A90 JUMPI DUP3 SWAP1 SUB PUSH1 0x1F AND DUP3 ADD SWAP2 JUMPDEST POP POP POP POP POP DUP2 MSTORE PUSH1 0x20 ADD PUSH1 0x3 DUP3 ADD PUSH1 0x0 SWAP1 SLOAD SWAP1 PUSH2 0x100 EXP SWAP1 DIV PUSH1 0xFF AND PUSH1 0x4 DUP2 GT ISZERO PUSH2 0x1ADB JUMPI PUSH2 0x1ADA PUSH2 0x2995 JUMP JUMPDEST JUMPDEST PUSH1 0x4 DUP2 GT ISZERO PUSH2 0x1AED JUMPI PUSH2 0x1AEC PUSH2 0x2995 JUMP JUMPDEST JUMPDEST DUP2 MSTORE PUSH1 0x20 ADD PUSH1 0x3 DUP3 ADD PUSH1 0x1 SWAP1 SLOAD SWAP1 PUSH2 0x100 EXP SWAP1 DIV PUSH1 0xFF AND ISZERO ISZERO ISZERO ISZERO DUP2 MSTORE PUSH1 0x20 ADD PUSH1 0x3 DUP3 ADD PUSH1 0x2 SWAP1 SLOAD SWAP1 PUSH2 0x100 EXP SWAP1 DIV PUSH20 0xFFFFFFFFFFFFFFFFFFFFFFFFFFFFFFFFFFFFFFFF AND PUSH20 0xFFFFFFFFFFFFFFFFFFFFFFFFFFFFFFFFFFFFFFFF AND PUSH20 0xFFFFFFFFFFFFFFFFFFFFFFFFFFFFFFFFFFFFFFFF AND DUP2 MSTORE PUSH1 0x20 ADD PUSH1 0x4 DUP3 ADD SLOAD DUP2 MSTORE PUSH1 0x20 ADD PUSH1 0x5 DUP3 ADD PUSH1 0x0 SWAP1 SLOAD SWAP1 PUSH2 0x100 EXP SWAP1 DIV PUSH1 0xFF AND ISZERO ISZERO ISZERO ISZERO DUP2 MSTORE PUSH1 0x20 ADD PUSH1 0x6 DUP3 ADD SLOAD DUP2 MSTORE PUSH1 0x20 ADD PUSH1 0x7 DUP3 ADD SLOAD DUP2 MSTORE PUSH1 0x20 ADD PUSH1 0x8 DUP3 ADD SLOAD DUP2 MSTORE POP POP DUP3 DUP3 DUP2 MLOAD DUP2 LT PUSH2 0x1BB8 JUMPI PUSH2 0x1BB7 PUSH2 0x3230 JUMP JUMPDEST JUMPDEST PUSH1 0x20 MUL PUSH1 0x20 ADD ADD DUP2 SWAP1 MSTORE POP DUP1 DUP1 PUSH2 0x1BCE SWAP1 PUSH2 0x35D5 JUMP JUMPDEST SWAP2 POP POP PUSH2 0x19C6 JUMP JUMPDEST POP DUP1 SWAP2 POP POP SWAP1 JUMP JUMPDEST PUSH2 0x1BE6 PUSH2 0x202D JUMP JUMPDEST PUSH1 0x0 PUSH20 0xFFFFFFFFFFFFFFFFFFFFFFFFFFFFFFFFFFFFFFFF AND DUP2 PUSH20 0xFFFFFFFFFFFFFFFFFFFFFFFFFFFFFFFFFFFFFFFF AND EQ ISZERO PUSH2 0x1C56 JUMPI PUSH1 0x40 MLOAD PUSH32 0x8C379A000000000000000000000000000000000000000000000000000000000 DUP2 MSTORE PUSH1 0x4 ADD PUSH2 0x1C4D SWAP1 PUSH2 0x378E JUMP JUMPDEST PUSH1 0x40 MLOAD DUP1 SWAP2 SUB SWAP1 REVERT JUMPDEST PUSH2 0x1C5F DUP2 PUSH2 0x20AB JUMP JUMPDEST POP JUMP JUMPDEST PUSH2 0x1C6A PUSH2 0x202D JUMP JUMPDEST PUSH1 0x0 PUSH1 0x7 PUSH1 0x0 DUP4 DUP2 MSTORE PUSH1 0x20 ADD SWAP1 DUP2 MSTORE PUSH1 0x20 ADD PUSH1 0x0 KECCAK256 SWAP1 POP DUP1 PUSH1 0x3 ADD PUSH1 0x0 SWAP1 SLOAD SWAP1 PUSH2 0x100 EXP SWAP1 DIV PUSH1 0xFF AND PUSH1 0x4 DUP2 GT ISZERO PUSH2 0x1CA5 JUMPI PUSH2 0x1CA4 PUSH2 0x2995 JUMP JUMPDEST JUMPDEST PUSH1 0x0 PUSH1 0x4 DUP2 GT ISZERO PUSH2 0x1CB9 JUMPI PUSH2 0x1CB8 PUSH2 0x2995 JUMP JUMPDEST JUMPDEST EQ ISZERO PUSH2 0x1D65 JUMPI PUSH1 0x4 DUP2 PUSH1 0x7 ADD SLOAD DUP2 SLOAD DUP2 LT PUSH2 0x1CD7 JUMPI PUSH2 0x1CD6 PUSH2 0x3230 JUMP JUMPDEST JUMPDEST SWAP1 PUSH1 0x0 MSTORE PUSH1 0x20 PUSH1 0x0 KECCAK256 POP POP PUSH1 0x4 PUSH1 0x1 PUSH1 0x4 DUP1 SLOAD SWAP1 POP PUSH2 0x1CF6 SWAP2 SWAP1 PUSH2 0x328E JUMP JUMPDEST DUP2 SLOAD DUP2 LT PUSH2 0x1D07 JUMPI PUSH2 0x1D06 PUSH2 0x3230 JUMP JUMPDEST JUMPDEST SWAP1 PUSH1 0x0 MSTORE PUSH1 0x20 PUSH1 0x0 KECCAK256 ADD SLOAD PUSH1 0x4 DUP3 PUSH1 0x7 ADD SLOAD DUP2 SLOAD DUP2 LT PUSH2 0x1D2A JUMPI PUSH2 0x1D29 PUSH2 0x3230 JUMP JUMPDEST JUMPDEST SWAP1 PUSH1 0x0 MSTORE PUSH1 0x20 PUSH1 0x0 KECCAK256 ADD DUP2 SWAP1 SSTORE POP PUSH1 0x4 DUP1 SLOAD DUP1 PUSH2 0x1D4A JUMPI PUSH2 0x1D49 PUSH2 0x32C2 JUMP JUMPDEST JUMPDEST PUSH1 0x1 SWAP1 SUB DUP2 DUP2 SWAP1 PUSH1 0x0 MSTORE PUSH1 0x20 PUSH1 0x0 KECCAK256 ADD PUSH1 0x0 SWAP1 SSTORE SWAP1 SSTORE PUSH2 0x1FA7 JUMP JUMPDEST DUP1 PUSH1 0x3 ADD PUSH1 0x0 SWAP1 SLOAD SWAP1 PUSH2 0x100 EXP SWAP1 DIV PUSH1 0xFF AND PUSH1 0x4 DUP2 GT ISZERO PUSH2 0x1D89 JUMPI PUSH2 0x1D88 PUSH2 0x2995 JUMP JUMPDEST JUMPDEST PUSH1 0x1 PUSH1 0x4 DUP2 GT ISZERO PUSH2 0x1D9D JUMPI PUSH2 0x1D9C PUSH2 0x2995 JUMP JUMPDEST JUMPDEST EQ ISZERO PUSH2 0x1E26 JUMPI PUSH1 0x2 PUSH1 0x1 PUSH1 0x2 DUP1 SLOAD SWAP1 POP PUSH2 0x1DB7 SWAP2 SWAP1 PUSH2 0x328E JUMP JUMPDEST DUP2 SLOAD DUP2 LT PUSH2 0x1DC8 JUMPI PUSH2 0x1DC7 PUSH2 0x3230 JUMP JUMPDEST JUMPDEST SWAP1 PUSH1 0x0 MSTORE PUSH1 0x20 PUSH1 0x0 KECCAK256 ADD SLOAD PUSH1 0x2 DUP3 PUSH1 0x7 ADD SLOAD DUP2 SLOAD DUP2 LT PUSH2 0x1DEB JUMPI PUSH2 0x1DEA PUSH2 0x3230 JUMP JUMPDEST JUMPDEST SWAP1 PUSH1 0x0 MSTORE PUSH1 0x20 PUSH1 0x0 KECCAK256 ADD DUP2 SWAP1 SSTORE POP PUSH1 0x2 DUP1 SLOAD DUP1 PUSH2 0x1E0B JUMPI PUSH2 0x1E0A PUSH2 0x32C2 JUMP JUMPDEST JUMPDEST PUSH1 0x1 SWAP1 SUB DUP2 DUP2 SWAP1 PUSH1 0x0 MSTORE PUSH1 0x20 PUSH1 0x0 KECCAK256 ADD PUSH1 0x0 SWAP1 SSTORE SWAP1 SSTORE PUSH2 0x1FA6 JUMP JUMPDEST DUP1 PUSH1 0x3 ADD PUSH1 0x0 SWAP1 SLOAD SWAP1 PUSH2 0x100 EXP SWAP1 DIV PUSH1 0xFF AND PUSH1 0x4 DUP2 GT ISZERO PUSH2 0x1E4A JUMPI PUSH2 0x1E49 PUSH2 0x2995 JUMP JUMPDEST JUMPDEST PUSH1 0x2 PUSH1 0x4 DUP2 GT ISZERO PUSH2 0x1E5E JUMPI PUSH2 0x1E5D PUSH2 0x2995 JUMP JUMPDEST JUMPDEST EQ ISZERO PUSH2 0x1EE7 JUMPI PUSH1 0x3 PUSH1 0x1 PUSH1 0x3 DUP1 SLOAD SWAP1 POP PUSH2 0x1E78 SWAP2 SWAP1 PUSH2 0x328E JUMP JUMPDEST DUP2 SLOAD DUP2 LT PUSH2 0x1E89 JUMPI PUSH2 0x1E88 PUSH2 0x3230 JUMP JUMPDEST JUMPDEST SWAP1 PUSH1 0x0 MSTORE PUSH1 0x20 PUSH1 0x0 KECCAK256 ADD SLOAD PUSH1 0x3 DUP3 PUSH1 0x7 ADD SLOAD DUP2 SLOAD DUP2 LT PUSH2 0x1EAC JUMPI PUSH2 0x1EAB PUSH2 0x3230 JUMP JUMPDEST JUMPDEST SWAP1 PUSH1 0x0 MSTORE PUSH1 0x20 PUSH1 0x0 KECCAK256 ADD DUP2 SWAP1 SSTORE POP PUSH1 0x3 DUP1 SLOAD DUP1 PUSH2 0x1ECC JUMPI PUSH2 0x1ECB PUSH2 0x32C2 JUMP JUMPDEST JUMPDEST PUSH1 0x1 SWAP1 SUB DUP2 DUP2 SWAP1 PUSH1 0x0 MSTORE PUSH1 0x20 PUSH1 0x0 KECCAK256 ADD PUSH1 0x0 SWAP1 SSTORE SWAP1 SSTORE PUSH2 0x1FA5 JUMP JUMPDEST DUP1 PUSH1 0x3 ADD PUSH1 0x0 SWAP1 SLOAD SWAP1 PUSH2 0x100 EXP SWAP1 DIV PUSH1 0xFF AND PUSH1 0x4 DUP2 GT ISZERO PUSH2 0x1F0B JUMPI PUSH2 0x1F0A PUSH2 0x2995 JUMP JUMPDEST JUMPDEST PUSH1 0x3 PUSH1 0x4 DUP2 GT ISZERO PUSH2 0x1F1F JUMPI PUSH2 0x1F1E PUSH2 0x2995 JUMP JUMPDEST JUMPDEST EQ ISZERO PUSH2 0x1FA4 JUMPI PUSH1 0x5 PUSH1 0x1 PUSH1 0x5 DUP1 SLOAD SWAP1 POP PUSH2 0x1F39 SWAP2 SWAP1 PUSH2 0x328E JUMP JUMPDEST DUP2 SLOAD DUP2 LT PUSH2 0x1F4A JUMPI PUSH2 0x1F49 PUSH2 0x3230 JUMP JUMPDEST JUMPDEST SWAP1 PUSH1 0x0 MSTORE PUSH1 0x20 PUSH1 0x0 KECCAK256 ADD SLOAD PUSH1 0x5 DUP3 PUSH1 0x7 ADD SLOAD DUP2 SLOAD DUP2 LT PUSH2 0x1F6D JUMPI PUSH2 0x1F6C PUSH2 0x3230 JUMP JUMPDEST JUMPDEST SWAP1 PUSH1 0x0 MSTORE PUSH1 0x20 PUSH1 0x0 KECCAK256 ADD DUP2 SWAP1 SSTORE POP PUSH1 0x5 DUP1 SLOAD DUP1 PUSH2 0x1F8D JUMPI PUSH2 0x1F8C PUSH2 0x32C2 JUMP JUMPDEST JUMPDEST PUSH1 0x1 SWAP1 SUB DUP2 DUP2 SWAP1 PUSH1 0x0 MSTORE PUSH1 0x20 PUSH1 0x0 KECCAK256 ADD PUSH1 0x0 SWAP1 SSTORE SWAP1 SSTORE JUMPDEST JUMPDEST JUMPDEST JUMPDEST PUSH2 0x1FB1 DUP4 DUP4 PUSH2 0x238B JUMP JUMPDEST DUP3 PUSH1 0x7 PUSH1 0x0 DUP5 DUP2 MSTORE PUSH1 0x20 ADD SWAP1 DUP2 MSTORE PUSH1 0x20 ADD PUSH1 0x0 KECCAK256 PUSH1 0x3 ADD PUSH1 0x0 PUSH2 0x100 EXP DUP2 SLOAD DUP2 PUSH1 0xFF MUL NOT AND SWAP1 DUP4 PUSH1 0x4 DUP2 GT ISZERO PUSH2 0x1FEA JUMPI PUSH2 0x1FE9 PUSH2 0x2995 JUMP JUMPDEST JUMPDEST MUL OR SWAP1 SSTORE POP PUSH32 0xFE0E8B132B5DDC77B64FF225945EE03C9538F971BD711092820315625FAF7018 DUP3 DUP5 PUSH1 0x40 MLOAD PUSH2 0x2020 SWAP3 SWAP2 SWAP1 PUSH2 0x37AE JUMP JUMPDEST PUSH1 0x40 MLOAD DUP1 SWAP2 SUB SWAP1 LOG1 POP POP POP JUMP JUMPDEST PUSH2 0x2035 PUSH2 0x2568 JUMP JUMPDEST PUSH20 0xFFFFFFFFFFFFFFFFFFFFFFFFFFFFFFFFFFFFFFFF AND PUSH2 0x2053 PUSH2 0x13C4 JUMP JUMPDEST PUSH20 0xFFFFFFFFFFFFFFFFFFFFFFFFFFFFFFFFFFFFFFFF AND EQ PUSH2 0x20A9 JUMPI PUSH1 0x40 MLOAD PUSH32 0x8C379A000000000000000000000000000000000000000000000000000000000 DUP2 MSTORE PUSH1 0x4 ADD PUSH2 0x20A0 SWAP1 PUSH2 0x3823 JUMP JUMPDEST PUSH1 0x40 MLOAD DUP1 SWAP2 SUB SWAP1 REVERT JUMPDEST JUMP JUMPDEST PUSH1 0x0 DUP1 PUSH1 0x0 SWAP1 SLOAD SWAP1 PUSH2 0x100 EXP SWAP1 DIV PUSH20 0xFFFFFFFFFFFFFFFFFFFFFFFFFFFFFFFFFFFFFFFF AND SWAP1 POP DUP2 PUSH1 0x0 DUP1 PUSH2 0x100 EXP DUP2 SLOAD DUP2 PUSH20 0xFFFFFFFFFFFFFFFFFFFFFFFFFFFFFFFFFFFFFFFF MUL NOT AND SWAP1 DUP4 PUSH20 0xFFFFFFFFFFFFFFFFFFFFFFFFFFFFFFFFFFFFFFFF AND MUL OR SWAP1 SSTORE POP DUP2 PUSH20 0xFFFFFFFFFFFFFFFFFFFFFFFFFFFFFFFFFFFFFFFF AND DUP2 PUSH20 0xFFFFFFFFFFFFFFFFFFFFFFFFFFFFFFFFFFFFFFFF AND PUSH32 0x8BE0079C531659141344CD1FD0A4F28419497F9722A3DAAFE3B4186F6B6457E0 PUSH1 0x40 MLOAD PUSH1 0x40 MLOAD DUP1 SWAP2 SUB SWAP1 LOG3 POP POP JUMP JUMPDEST PUSH1 0x60 DUP2 PUSH1 0x4 DUP2 GT ISZERO PUSH2 0x2184 JUMPI PUSH2 0x2183 PUSH2 0x2995 JUMP JUMPDEST JUMPDEST PUSH1 0x0 PUSH1 0x4 DUP2 GT ISZERO PUSH2 0x2198 JUMPI PUSH2 0x2197 PUSH2 0x2995 JUMP JUMPDEST JUMPDEST EQ ISZERO PUSH2 0x21F6 JUMPI PUSH1 0x4 DUP1 SLOAD DUP1 PUSH1 0x20 MUL PUSH1 0x20 ADD PUSH1 0x40 MLOAD SWAP1 DUP2 ADD PUSH1 0x40 MSTORE DUP1 SWAP3 SWAP2 SWAP1 DUP2 DUP2 MSTORE PUSH1 0x20 ADD DUP3 DUP1 SLOAD DUP1 ISZERO PUSH2 0x21EA JUMPI PUSH1 0x20 MUL DUP3 ADD SWAP2 SWAP1 PUSH1 0x0 MSTORE PUSH1 0x20 PUSH1 0x0 KECCAK256 SWAP1 JUMPDEST DUP2 SLOAD DUP2 MSTORE PUSH1 0x20 ADD SWAP1 PUSH1 0x1 ADD SWAP1 DUP1 DUP4 GT PUSH2 0x21D6 JUMPI JUMPDEST POP POP POP POP POP SWAP1 POP PUSH2 0x2386 JUMP JUMPDEST DUP2 PUSH1 0x4 DUP2 GT ISZERO PUSH2 0x2209 JUMPI PUSH2 0x2208 PUSH2 0x2995 JUMP JUMPDEST JUMPDEST PUSH1 0x1 PUSH1 0x4 DUP2 GT ISZERO PUSH2 0x221D JUMPI PUSH2 0x221C PUSH2 0x2995 JUMP JUMPDEST JUMPDEST EQ ISZERO PUSH2 0x227B JUMPI PUSH1 0x2 DUP1 SLOAD DUP1 PUSH1 0x20 MUL PUSH1 0x20 ADD PUSH1 0x40 MLOAD SWAP1 DUP2 ADD PUSH1 0x40 MSTORE DUP1 SWAP3 SWAP2 SWAP1 DUP2 DUP2 MSTORE PUSH1 0x20 ADD DUP3 DUP1 SLOAD DUP1 ISZERO PUSH2 0x226F JUMPI PUSH1 0x20 MUL DUP3 ADD SWAP2 SWAP1 PUSH1 0x0 MSTORE PUSH1 0x20 PUSH1 0x0 KECCAK256 SWAP1 JUMPDEST DUP2 SLOAD DUP2 MSTORE PUSH1 0x20 ADD SWAP1 PUSH1 0x1 ADD SWAP1 DUP1 DUP4 GT PUSH2 0x225B JUMPI JUMPDEST POP POP POP POP POP SWAP1 POP PUSH2 0x2386 JUMP JUMPDEST DUP2 PUSH1 0x4 DUP2 GT ISZERO PUSH2 0x228E JUMPI PUSH2 0x228D PUSH2 0x2995 JUMP JUMPDEST JUMPDEST PUSH1 0x2 PUSH1 0x4 DUP2 GT ISZERO PUSH2 0x22A2 JUMPI PUSH2 0x22A1 PUSH2 0x2995 JUMP JUMPDEST JUMPDEST EQ ISZERO PUSH2 0x2300 JUMPI PUSH1 0x3 DUP1 SLOAD DUP1 PUSH1 0x20 MUL PUSH1 0x20 ADD PUSH1 0x40 MLOAD SWAP1 DUP2 ADD PUSH1 0x40 MSTORE DUP1 SWAP3 SWAP2 SWAP1 DUP2 DUP2 MSTORE PUSH1 0x20 ADD DUP3 DUP1 SLOAD DUP1 ISZERO PUSH2 0x22F4 JUMPI PUSH1 0x20 MUL DUP3 ADD SWAP2 SWAP1 PUSH1 0x0 MSTORE PUSH1 0x20 PUSH1 0x0 KECCAK256 SWAP1 JUMPDEST DUP2 SLOAD DUP2 MSTORE PUSH1 0x20 ADD SWAP1 PUSH1 0x1 ADD SWAP1 DUP1 DUP4 GT PUSH2 0x22E0 JUMPI JUMPDEST POP POP POP POP POP SWAP1 POP PUSH2 0x2386 JUMP JUMPDEST DUP2 PUSH1 0x4 DUP2 GT ISZERO PUSH2 0x2313 JUMPI PUSH2 0x2312 PUSH2 0x2995 JUMP JUMPDEST JUMPDEST PUSH1 0x3 PUSH1 0x4 DUP2 GT ISZERO PUSH2 0x2327 JUMPI PUSH2 0x2326 PUSH2 0x2995 JUMP JUMPDEST JUMPDEST EQ ISZERO PUSH2 0x2385 JUMPI PUSH1 0x5 DUP1 SLOAD DUP1 PUSH1 0x20 MUL PUSH1 0x20 ADD PUSH1 0x40 MLOAD SWAP1 DUP2 ADD PUSH1 0x40 MSTORE DUP1 SWAP3 SWAP2 SWAP1 DUP2 DUP2 MSTORE PUSH1 0x20 ADD DUP3 DUP1 SLOAD DUP1 ISZERO PUSH2 0x2379 JUMPI PUSH1 0x20 MUL DUP3 ADD SWAP2 SWAP1 PUSH1 0x0 MSTORE PUSH1 0x20 PUSH1 0x0 KECCAK256 SWAP1 JUMPDEST DUP2 SLOAD DUP2 MSTORE PUSH1 0x20 ADD SWAP1 PUSH1 0x1 ADD SWAP1 DUP1 DUP4 GT PUSH2 0x2365 JUMPI JUMPDEST POP POP POP POP POP SWAP1 POP PUSH2 0x2386 JUMP JUMPDEST JUMPDEST SWAP2 SWAP1 POP JUMP JUMPDEST PUSH1 0x0 DUP3 PUSH1 0x4 DUP2 GT ISZERO PUSH2 0x23A0 JUMPI PUSH2 0x239F PUSH2 0x2995 JUMP JUMPDEST JUMPDEST PUSH1 0x0 PUSH1 0x4 DUP2 GT ISZERO PUSH2 0x23B4 JUMPI PUSH2 0x23B3 PUSH2 0x2995 JUMP JUMPDEST JUMPDEST EQ ISZERO PUSH2 0x23FC JUMPI PUSH1 0x4 DUP3 SWAP1 DUP1 PUSH1 0x1 DUP2 SLOAD ADD DUP1 DUP3 SSTORE DUP1 SWAP2 POP POP PUSH1 0x1 SWAP1 SUB SWAP1 PUSH1 0x0 MSTORE PUSH1 0x20 PUSH1 0x0 KECCAK256 ADD PUSH1 0x0 SWAP1 SWAP2 SWAP1 SWAP2 SWAP1 SWAP2 POP SSTORE PUSH1 0x1 PUSH1 0x4 DUP1 SLOAD SWAP1 POP PUSH2 0x23F5 SWAP2 SWAP1 PUSH2 0x328E JUMP JUMPDEST SWAP1 POP PUSH2 0x2548 JUMP JUMPDEST DUP3 PUSH1 0x4 DUP2 GT ISZERO PUSH2 0x240F JUMPI PUSH2 0x240E PUSH2 0x2995 JUMP JUMPDEST JUMPDEST PUSH1 0x1 PUSH1 0x4 DUP2 GT ISZERO PUSH2 0x2423 JUMPI PUSH2 0x2422 PUSH2 0x2995 JUMP JUMPDEST JUMPDEST EQ ISZERO PUSH2 0x246B JUMPI PUSH1 0x2 DUP3 SWAP1 DUP1 PUSH1 0x1 DUP2 SLOAD ADD DUP1 DUP3 SSTORE DUP1 SWAP2 POP POP PUSH1 0x1 SWAP1 SUB SWAP1 PUSH1 0x0 MSTORE PUSH1 0x20 PUSH1 0x0 KECCAK256 ADD PUSH1 0x0 SWAP1 SWAP2 SWAP1 SWAP2 SWAP1 SWAP2 POP SSTORE PUSH1 0x1 PUSH1 0x2 DUP1 SLOAD SWAP1 POP PUSH2 0x2464 SWAP2 SWAP1 PUSH2 0x328E JUMP JUMPDEST SWAP1 POP PUSH2 0x2547 JUMP JUMPDEST DUP3 PUSH1 0x4 DUP2 GT ISZERO PUSH2 0x247E JUMPI PUSH2 0x247D PUSH2 0x2995 JUMP JUMPDEST JUMPDEST PUSH1 0x2 PUSH1 0x4 DUP2 GT ISZERO PUSH2 0x2492 JUMPI PUSH2 0x2491 PUSH2 0x2995 JUMP JUMPDEST JUMPDEST EQ ISZERO PUSH2 0x24DA JUMPI PUSH1 0x3 DUP3 SWAP1 DUP1 PUSH1 0x1 DUP2 SLOAD ADD DUP1 DUP3 SSTORE DUP1 SWAP2 POP POP PUSH1 0x1 SWAP1 SUB SWAP1 PUSH1 0x0 MSTORE PUSH1 0x20 PUSH1 0x0 KECCAK256 ADD PUSH1 0x0 SWAP1 SWAP2 SWAP1 SWAP2 SWAP1 SWAP2 POP SSTORE PUSH1 0x1 PUSH1 0x3 DUP1 SLOAD SWAP1 POP PUSH2 0x24D3 SWAP2 SWAP1 PUSH2 0x328E JUMP JUMPDEST SWAP1 POP PUSH2 0x2546 JUMP JUMPDEST DUP3 PUSH1 0x4 DUP2 GT ISZERO PUSH2 0x24ED JUMPI PUSH2 0x24EC PUSH2 0x2995 JUMP JUMPDEST JUMPDEST PUSH1 0x3 PUSH1 0x4 DUP2 GT ISZERO PUSH2 0x2501 JUMPI PUSH2 0x2500 PUSH2 0x2995 JUMP JUMPDEST JUMPDEST EQ ISZERO PUSH2 0x2545 JUMPI PUSH1 0x5 DUP3 SWAP1 DUP1 PUSH1 0x1 DUP2 SLOAD ADD DUP1 DUP3 SSTORE DUP1 SWAP2 POP POP PUSH1 0x1 SWAP1 SUB SWAP1 PUSH1 0x0 MSTORE PUSH1 0x20 PUSH1 0x0 KECCAK256 ADD PUSH1 0x0 SWAP1 SWAP2 SWAP1 SWAP2 SWAP1 SWAP2 POP SSTORE PUSH1 0x1 PUSH1 0x5 DUP1 SLOAD SWAP1 POP PUSH2 0x2542 SWAP2 SWAP1 PUSH2 0x328E JUMP JUMPDEST SWAP1 POP JUMPDEST JUMPDEST JUMPDEST JUMPDEST DUP1 PUSH1 0x7 PUSH1 0x0 DUP5 DUP2 MSTORE PUSH1 0x20 ADD SWAP1 DUP2 MSTORE PUSH1 0x20 ADD PUSH1 0x0 KECCAK256 PUSH1 0x7 ADD DUP2 SWAP1 SSTORE POP POP POP POP JUMP JUMPDEST PUSH1 0x0 CALLER SWAP1 POP SWAP1 JUMP JUMPDEST DUP3 DUP1 SLOAD PUSH2 0x257C SWAP1 PUSH2 0x354D JUMP JUMPDEST SWAP1 PUSH1 0x0 MSTORE PUSH1 0x20 PUSH1 0x0 KECCAK256 SWAP1 PUSH1 0x1F ADD PUSH1 0x20 SWAP1 DIV DUP2 ADD SWAP3 DUP3 PUSH2 0x259E JUMPI PUSH1 0x0 DUP6 SSTORE PUSH2 0x25E5 JUMP JUMPDEST DUP3 PUSH1 0x1F LT PUSH2 0x25B7 JUMPI DUP1 MLOAD PUSH1 0xFF NOT AND DUP4 DUP1 ADD OR DUP6 SSTORE PUSH2 0x25E5 JUMP JUMPDEST DUP3 DUP1 ADD PUSH1 0x1 ADD DUP6 SSTORE DUP3 ISZERO PUSH2 0x25E5 JUMPI SWAP2 DUP3 ADD JUMPDEST DUP3 DUP2 GT ISZERO PUSH2 0x25E4 JUMPI DUP3 MLOAD DUP3 SSTORE SWAP2 PUSH1 0x20 ADD SWAP2 SWAP1 PUSH1 0x1 ADD SWAP1 PUSH2 0x25C9 JUMP JUMPDEST JUMPDEST POP SWAP1 POP PUSH2 0x25F2 SWAP2 SWAP1 PUSH2 0x267F JUMP JUMPDEST POP SWAP1 JUMP JUMPDEST PUSH1 0x40 MLOAD DUP1 PUSH2 0x160 ADD PUSH1 0x40 MSTORE DUP1 PUSH1 0x0 DUP1 NOT AND DUP2 MSTORE PUSH1 0x20 ADD PUSH1 0x0 DUP2 MSTORE PUSH1 0x20 ADD PUSH1 0x60 DUP2 MSTORE PUSH1 0x20 ADD PUSH1 0x0 PUSH1 0x4 DUP2 GT ISZERO PUSH2 0x262E JUMPI PUSH2 0x262D PUSH2 0x2995 JUMP JUMPDEST JUMPDEST DUP2 MSTORE PUSH1 0x20 ADD PUSH1 0x0 ISZERO ISZERO DUP2 MSTORE PUSH1 0x20 ADD PUSH1 0x0 PUSH20 0xFFFFFFFFFFFFFFFFFFFFFFFFFFFFFFFFFFFFFFFF AND DUP2 MSTORE PUSH1 0x20 ADD PUSH1 0x0 DUP2 MSTORE PUSH1 0x20 ADD PUSH1 0x0 ISZERO ISZERO DUP2 MSTORE PUSH1 0x20 ADD PUSH1 0x0 DUP2 MSTORE PUSH1 0x20 ADD PUSH1 0x0 DUP2 MSTORE PUSH1 0x20 ADD PUSH1 0x0 DUP2 MSTORE POP SWAP1 JUMP JUMPDEST JUMPDEST DUP1 DUP3 GT ISZERO PUSH2 0x2698 JUMPI PUSH1 0x0 DUP2 PUSH1 0x0 SWAP1 SSTORE POP PUSH1 0x1 ADD PUSH2 0x2680 JUMP JUMPDEST POP SWAP1 JUMP JUMPDEST PUSH1 0x0 PUSH1 0x40 MLOAD SWAP1 POP SWAP1 JUMP JUMPDEST PUSH1 0x0 DUP1 REVERT JUMPDEST PUSH1 0x0 DUP1 REVERT JUMPDEST PUSH1 0x0 DUP2 SWAP1 POP SWAP2 SWAP1 POP JUMP JUMPDEST PUSH2 0x26C3 DUP2 PUSH2 0x26B0 JUMP JUMPDEST DUP2 EQ PUSH2 0x26CE JUMPI PUSH1 0x0 DUP1 REVERT JUMPDEST POP JUMP JUMPDEST PUSH1 0x0 DUP2 CALLDATALOAD SWAP1 POP PUSH2 0x26E0 DUP2 PUSH2 0x26BA JUMP JUMPDEST SWAP3 SWAP2 POP POP JUMP JUMPDEST PUSH1 0x0 PUSH1 0x20 DUP3 DUP5 SUB SLT ISZERO PUSH2 0x26FC JUMPI PUSH2 0x26FB PUSH2 0x26A6 JUMP JUMPDEST JUMPDEST PUSH1 0x0 PUSH2 0x270A DUP5 DUP3 DUP6 ADD PUSH2 0x26D1 JUMP JUMPDEST SWAP2 POP POP SWAP3 SWAP2 POP POP JUMP JUMPDEST PUSH1 0x0 DUP2 SWAP1 POP SWAP2 SWAP1 POP JUMP JUMPDEST PUSH2 0x2726 DUP2 PUSH2 0x2713 JUMP JUMPDEST DUP2 EQ PUSH2 0x2731 JUMPI PUSH1 0x0 DUP1 REVERT JUMPDEST POP JUMP JUMPDEST PUSH1 0x0 DUP2 CALLDATALOAD SWAP1 POP PUSH2 0x2743 DUP2 PUSH2 0x271D JUMP JUMPDEST SWAP3 SWAP2 POP POP JUMP JUMPDEST PUSH1 0x0 DUP1 REVERT JUMPDEST PUSH1 0x0 DUP1 REVERT JUMPDEST PUSH1 0x0 DUP1 REVERT JUMPDEST PUSH1 0x0 DUP1 DUP4 PUSH1 0x1F DUP5 ADD SLT PUSH2 0x276E JUMPI PUSH2 0x276D PUSH2 0x2749 JUMP JUMPDEST JUMPDEST DUP3 CALLDATALOAD SWAP1 POP PUSH8 0xFFFFFFFFFFFFFFFF DUP2 GT ISZERO PUSH2 0x278B JUMPI PUSH2 0x278A PUSH2 0x274E JUMP JUMPDEST JUMPDEST PUSH1 0x20 DUP4 ADD SWAP2 POP DUP4 PUSH1 0x1 DUP3 MUL DUP4 ADD GT ISZERO PUSH2 0x27A7 JUMPI PUSH2 0x27A6 PUSH2 0x2753 JUMP JUMPDEST JUMPDEST SWAP3 POP SWAP3 SWAP1 POP JUMP JUMPDEST PUSH1 0x0 PUSH20 0xFFFFFFFFFFFFFFFFFFFFFFFFFFFFFFFFFFFFFFFF DUP3 AND SWAP1 POP SWAP2 SWAP1 POP JUMP JUMPDEST PUSH1 0x0 PUSH2 0x27D9 DUP3 PUSH2 0x27AE JUMP JUMPDEST SWAP1 POP SWAP2 SWAP1 POP JUMP JUMPDEST PUSH2 0x27E9 DUP2 PUSH2 0x27CE JUMP JUMPDEST DUP2 EQ PUSH2 0x27F4 JUMPI PUSH1 0x0 DUP1 REVERT JUMPDEST POP JUMP JUMPDEST PUSH1 0x0 DUP2 CALLDATALOAD SWAP1 POP PUSH2 0x2806 DUP2 PUSH2 0x27E0 JUMP JUMPDEST SWAP3 SWAP2 POP POP JUMP JUMPDEST PUSH1 0x0 DUP2 ISZERO ISZERO SWAP1 POP SWAP2 SWAP1 POP JUMP JUMPDEST PUSH2 0x2821 DUP2 PUSH2 0x280C JUMP JUMPDEST DUP2 EQ PUSH2 0x282C JUMPI PUSH1 0x0 DUP1 REVERT JUMPDEST POP JUMP JUMPDEST PUSH1 0x0 DUP2 CALLDATALOAD SWAP1 POP PUSH2 0x283E DUP2 PUSH2 0x2818 JUMP JUMPDEST SWAP3 SWAP2 POP POP JUMP JUMPDEST PUSH1 0x0 DUP1 PUSH1 0x0 DUP1 PUSH1 0x0 DUP1 PUSH1 0xA0 DUP8 DUP10 SUB SLT ISZERO PUSH2 0x2861 JUMPI PUSH2 0x2860 PUSH2 0x26A6 JUMP JUMPDEST JUMPDEST PUSH1 0x0 PUSH2 0x286F DUP10 DUP3 DUP11 ADD PUSH2 0x2734 JUMP JUMPDEST SWAP7 POP POP PUSH1 0x20 PUSH2 0x2880 DUP10 DUP3 DUP11 ADD PUSH2 0x2734 JUMP JUMPDEST SWAP6 POP POP PUSH1 0x40 DUP8 ADD CALLDATALOAD PUSH8 0xFFFFFFFFFFFFFFFF DUP2 GT ISZERO PUSH2 0x28A1 JUMPI PUSH2 0x28A0 PUSH2 0x26AB JUMP JUMPDEST JUMPDEST PUSH2 0x28AD DUP10 DUP3 DUP11 ADD PUSH2 0x2758 JUMP JUMPDEST SWAP5 POP SWAP5 POP POP PUSH1 0x60 PUSH2 0x28C0 DUP10 DUP3 DUP11 ADD PUSH2 0x27F7 JUMP JUMPDEST SWAP3 POP POP PUSH1 0x80 PUSH2 0x28D1 DUP10 DUP3 DUP11 ADD PUSH2 0x282F JUMP JUMPDEST SWAP2 POP POP SWAP3 SWAP6 POP SWAP3 SWAP6 POP SWAP3 SWAP6 JUMP JUMPDEST PUSH2 0x28E7 DUP2 PUSH2 0x26B0 JUMP JUMPDEST DUP3 MSTORE POP POP JUMP JUMPDEST PUSH2 0x28F6 DUP2 PUSH2 0x2713 JUMP JUMPDEST DUP3 MSTORE POP POP JUMP JUMPDEST PUSH1 0x0 DUP2 MLOAD SWAP1 POP SWAP2 SWAP1 POP JUMP JUMPDEST PUSH1 0x0 DUP3 DUP3 MSTORE PUSH1 0x20 DUP3 ADD SWAP1 POP SWAP3 SWAP2 POP POP JUMP JUMPDEST PUSH1 0x0 JUMPDEST DUP4 DUP2 LT ISZERO PUSH2 0x2936 JUMPI DUP1 DUP3 ADD MLOAD DUP2 DUP5 ADD MSTORE PUSH1 0x20 DUP2 ADD SWAP1 POP PUSH2 0x291B JUMP JUMPDEST DUP4 DUP2 GT ISZERO PUSH2 0x2945 JUMPI PUSH1 0x0 DUP5 DUP5 ADD MSTORE JUMPDEST POP POP POP POP JUMP JUMPDEST PUSH1 0x0 PUSH1 0x1F NOT PUSH1 0x1F DUP4 ADD AND SWAP1 POP SWAP2 SWAP1 POP JUMP JUMPDEST PUSH1 0x0 PUSH2 0x2967 DUP3 PUSH2 0x28FC JUMP JUMPDEST PUSH2 0x2971 DUP2 DUP6 PUSH2 0x2907 JUMP JUMPDEST SWAP4 POP PUSH2 0x2981 DUP2 DUP6 PUSH1 0x20 DUP7 ADD PUSH2 0x2918 JUMP JUMPDEST PUSH2 0x298A DUP2 PUSH2 0x294B JUMP JUMPDEST DUP5 ADD SWAP2 POP POP SWAP3 SWAP2 POP POP JUMP JUMPDEST PUSH32 0x4E487B7100000000000000000000000000000000000000000000000000000000 PUSH1 0x0 MSTORE PUSH1 0x21 PUSH1 0x4 MSTORE PUSH1 0x24 PUSH1 0x0 REVERT JUMPDEST PUSH1 0x5 DUP2 LT PUSH2 0x29D5 JUMPI PUSH2 0x29D4 PUSH2 0x2995 JUMP JUMPDEST JUMPDEST POP JUMP JUMPDEST PUSH1 0x0 DUP2 SWAP1 POP PUSH2 0x29E6 DUP3 PUSH2 0x29C4 JUMP JUMPDEST SWAP2 SWAP1 POP JUMP JUMPDEST PUSH1 0x0 PUSH2 0x29F6 DUP3 PUSH2 0x29D8 JUMP JUMPDEST SWAP1 POP SWAP2 SWAP1 POP JUMP JUMPDEST PUSH2 0x2A06 DUP2 PUSH2 0x29EB JUMP JUMPDEST DUP3 MSTORE POP POP JUMP JUMPDEST PUSH2 0x2A15 DUP2 PUSH2 0x27CE JUMP JUMPDEST DUP3 MSTORE POP POP JUMP JUMPDEST PUSH1 0x0 PUSH1 0xC0 DUP3 ADD SWAP1 POP PUSH2 0x2A30 PUSH1 0x0 DUP4 ADD DUP10 PUSH2 0x28DE JUMP JUMPDEST PUSH2 0x2A3D PUSH1 0x20 DUP4 ADD DUP9 PUSH2 0x28ED JUMP JUMPDEST PUSH2 0x2A4A PUSH1 0x40 DUP4 ADD DUP8 PUSH2 0x28ED JUMP JUMPDEST DUP2 DUP2 SUB PUSH1 0x60 DUP4 ADD MSTORE PUSH2 0x2A5C DUP2 DUP7 PUSH2 0x295C JUMP JUMPDEST SWAP1 POP PUSH2 0x2A6B PUSH1 0x80 DUP4 ADD DUP6 PUSH2 0x29FD JUMP JUMPDEST PUSH2 0x2A78 PUSH1 0xA0 DUP4 ADD DUP5 PUSH2 0x2A0C JUMP JUMPDEST SWAP8 SWAP7 POP POP POP POP POP POP POP JUMP JUMPDEST PUSH32 0x4E487B7100000000000000000000000000000000000000000000000000000000 PUSH1 0x0 MSTORE PUSH1 0x41 PUSH1 0x4 MSTORE PUSH1 0x24 PUSH1 0x0 REVERT JUMPDEST PUSH2 0x2ABB DUP3 PUSH2 0x294B JUMP JUMPDEST DUP2 ADD DUP2 DUP2 LT PUSH8 0xFFFFFFFFFFFFFFFF DUP3 GT OR ISZERO PUSH2 0x2ADA JUMPI PUSH2 0x2AD9 PUSH2 0x2A83 JUMP JUMPDEST JUMPDEST DUP1 PUSH1 0x40 MSTORE POP POP POP JUMP JUMPDEST PUSH1 0x0 PUSH2 0x2AED PUSH2 0x269C JUMP JUMPDEST SWAP1 POP PUSH2 0x2AF9 DUP3 DUP3 PUSH2 0x2AB2 JUMP JUMPDEST SWAP2 SWAP1 POP JUMP JUMPDEST PUSH1 0x0 PUSH8 0xFFFFFFFFFFFFFFFF DUP3 GT ISZERO PUSH2 0x2B19 JUMPI PUSH2 0x2B18 PUSH2 0x2A83 JUMP JUMPDEST JUMPDEST PUSH1 0x20 DUP3 MUL SWAP1 POP PUSH1 0x20 DUP2 ADD SWAP1 POP SWAP2 SWAP1 POP JUMP JUMPDEST PUSH1 0x5 DUP2 LT PUSH2 0x2B37 JUMPI PUSH1 0x0 DUP1 REVERT JUMPDEST POP JUMP JUMPDEST PUSH1 0x0 DUP2 CALLDATALOAD SWAP1 POP PUSH2 0x2B49 DUP2 PUSH2 0x2B2A JUMP JUMPDEST SWAP3 SWAP2 POP POP JUMP JUMPDEST PUSH1 0x0 PUSH2 0x2B62 PUSH2 0x2B5D DUP5 PUSH2 0x2AFE JUMP JUMPDEST PUSH2 0x2AE3 JUMP JUMPDEST SWAP1 POP DUP1 DUP4 DUP3 MSTORE PUSH1 0x20 DUP3 ADD SWAP1 POP PUSH1 0x20 DUP5 MUL DUP4 ADD DUP6 DUP2 GT ISZERO PUSH2 0x2B85 JUMPI PUSH2 0x2B84 PUSH2 0x2753 JUMP JUMPDEST JUMPDEST DUP4 JUMPDEST DUP2 DUP2 LT ISZERO PUSH2 0x2BAE JUMPI DUP1 PUSH2 0x2B9A DUP9 DUP3 PUSH2 0x2B3A JUMP JUMPDEST DUP5 MSTORE PUSH1 0x20 DUP5 ADD SWAP4 POP POP PUSH1 0x20 DUP2 ADD SWAP1 POP PUSH2 0x2B87 JUMP JUMPDEST POP POP POP SWAP4 SWAP3 POP POP POP JUMP JUMPDEST PUSH1 0x0 DUP3 PUSH1 0x1F DUP4 ADD SLT PUSH2 0x2BCD JUMPI PUSH2 0x2BCC PUSH2 0x2749 JUMP JUMPDEST JUMPDEST DUP2 CALLDATALOAD PUSH2 0x2BDD DUP5 DUP3 PUSH1 0x20 DUP7 ADD PUSH2 0x2B4F JUMP JUMPDEST SWAP2 POP POP SWAP3 SWAP2 POP POP JUMP JUMPDEST PUSH1 0x0 PUSH1 0x20 DUP3 DUP5 SUB SLT ISZERO PUSH2 0x2BFC JUMPI PUSH2 0x2BFB PUSH2 0x26A6 JUMP JUMPDEST JUMPDEST PUSH1 0x0 DUP3 ADD CALLDATALOAD PUSH8 0xFFFFFFFFFFFFFFFF DUP2 GT ISZERO PUSH2 0x2C1A JUMPI PUSH2 0x2C19 PUSH2 0x26AB JUMP JUMPDEST JUMPDEST PUSH2 0x2C26 DUP5 DUP3 DUP6 ADD PUSH2 0x2BB8 JUMP JUMPDEST SWAP2 POP POP SWAP3 SWAP2 POP POP JUMP JUMPDEST PUSH1 0x0 DUP2 MLOAD SWAP1 POP SWAP2 SWAP1 POP JUMP JUMPDEST PUSH1 0x0 DUP3 DUP3 MSTORE PUSH1 0x20 DUP3 ADD SWAP1 POP SWAP3 SWAP2 POP POP JUMP JUMPDEST PUSH1 0x0 DUP2 SWAP1 POP PUSH1 0x20 DUP3 ADD SWAP1 POP SWAP2 SWAP1 POP JUMP JUMPDEST PUSH2 0x2C64 DUP2 PUSH2 0x26B0 JUMP JUMPDEST DUP3 MSTORE POP POP JUMP JUMPDEST PUSH2 0x2C73 DUP2 PUSH2 0x2713 JUMP JUMPDEST DUP3 MSTORE POP POP JUMP JUMPDEST PUSH1 0x0 DUP3 DUP3 MSTORE PUSH1 0x20 DUP3 ADD SWAP1 POP SWAP3 SWAP2 POP POP JUMP JUMPDEST PUSH1 0x0 PUSH2 0x2C95 DUP3 PUSH2 0x28FC JUMP JUMPDEST PUSH2 0x2C9F DUP2 DUP6 PUSH2 0x2C79 JUMP JUMPDEST SWAP4 POP PUSH2 0x2CAF DUP2 DUP6 PUSH1 0x20 DUP7 ADD PUSH2 0x2918 JUMP JUMPDEST PUSH2 0x2CB8 DUP2 PUSH2 0x294B JUMP JUMPDEST DUP5 ADD SWAP2 POP POP SWAP3 SWAP2 POP POP JUMP JUMPDEST PUSH2 0x2CCC DUP2 PUSH2 0x29EB JUMP JUMPDEST DUP3 MSTORE POP POP JUMP JUMPDEST PUSH2 0x2CDB DUP2 PUSH2 0x280C JUMP JUMPDEST DUP3 MSTORE POP POP JUMP JUMPDEST PUSH2 0x2CEA DUP2 PUSH2 0x27CE JUMP JUMPDEST DUP3 MSTORE POP POP JUMP JUMPDEST PUSH1 0x0 PUSH2 0x160 DUP4 ADD PUSH1 0x0 DUP4 ADD MLOAD PUSH2 0x2D09 PUSH1 0x0 DUP7 ADD DUP3 PUSH2 0x2C5B JUMP JUMPDEST POP PUSH1 0x20 DUP4 ADD MLOAD PUSH2 0x2D1C PUSH1 0x20 DUP7 ADD DUP3 PUSH2 0x2C6A JUMP JUMPDEST POP PUSH1 0x40 DUP4 ADD MLOAD DUP5 DUP3 SUB PUSH1 0x40 DUP7 ADD MSTORE PUSH2 0x2D34 DUP3 DUP3 PUSH2 0x2C8A JUMP JUMPDEST SWAP2 POP POP PUSH1 0x60 DUP4 ADD MLOAD PUSH2 0x2D49 PUSH1 0x60 DUP7 ADD DUP3 PUSH2 0x2CC3 JUMP JUMPDEST POP PUSH1 0x80 DUP4 ADD MLOAD PUSH2 0x2D5C PUSH1 0x80 DUP7 ADD DUP3 PUSH2 0x2CD2 JUMP JUMPDEST POP PUSH1 0xA0 DUP4 ADD MLOAD PUSH2 0x2D6F PUSH1 0xA0 DUP7 ADD DUP3 PUSH2 0x2CE1 JUMP JUMPDEST POP PUSH1 0xC0 DUP4 ADD MLOAD PUSH2 0x2D82 PUSH1 0xC0 DUP7 ADD DUP3 PUSH2 0x2C6A JUMP JUMPDEST POP PUSH1 0xE0 DUP4 ADD MLOAD PUSH2 0x2D95 PUSH1 0xE0 DUP7 ADD DUP3 PUSH2 0x2CD2 JUMP JUMPDEST POP PUSH2 0x100 DUP4 ADD MLOAD PUSH2 0x2DAA PUSH2 0x100 DUP7 ADD DUP3 PUSH2 0x2C6A JUMP JUMPDEST POP PUSH2 0x120 DUP4 ADD MLOAD PUSH2 0x2DBF PUSH2 0x120 DUP7 ADD DUP3 PUSH2 0x2C6A JUMP JUMPDEST POP PUSH2 0x140 DUP4 ADD MLOAD PUSH2 0x2DD4 PUSH2 0x140 DUP7 ADD DUP3 PUSH2 0x2C6A JUMP JUMPDEST POP DUP1 SWAP2 POP POP SWAP3 SWAP2 POP POP JUMP JUMPDEST PUSH1 0x0 PUSH2 0x2DEB DUP4 DUP4 PUSH2 0x2CF0 JUMP JUMPDEST SWAP1 POP SWAP3 SWAP2 POP POP JUMP JUMPDEST PUSH1 0x0 PUSH1 0x20 DUP3 ADD SWAP1 POP SWAP2 SWAP1 POP JUMP JUMPDEST PUSH1 0x0 PUSH2 0x2E0B DUP3 PUSH2 0x2C2F JUMP JUMPDEST PUSH2 0x2E15 DUP2 DUP6 PUSH2 0x2C3A JUMP JUMPDEST SWAP4 POP DUP4 PUSH1 0x20 DUP3 MUL DUP6 ADD PUSH2 0x2E27 DUP6 PUSH2 0x2C4B JUMP JUMPDEST DUP1 PUSH1 0x0 JUMPDEST DUP6 DUP2 LT ISZERO PUSH2 0x2E63 JUMPI DUP5 DUP5 SUB DUP10 MSTORE DUP2 MLOAD PUSH2 0x2E44 DUP6 DUP3 PUSH2 0x2DDF JUMP JUMPDEST SWAP5 POP PUSH2 0x2E4F DUP4 PUSH2 0x2DF3 JUMP JUMPDEST SWAP3 POP PUSH1 0x20 DUP11 ADD SWAP10 POP POP PUSH1 0x1 DUP2 ADD SWAP1 POP PUSH2 0x2E2B JUMP JUMPDEST POP DUP3 SWAP8 POP DUP8 SWAP6 POP POP POP POP POP POP SWAP3 SWAP2 POP POP JUMP JUMPDEST PUSH1 0x0 PUSH1 0x20 DUP3 ADD SWAP1 POP DUP2 DUP2 SUB PUSH1 0x0 DUP4 ADD MSTORE PUSH2 0x2E8F DUP2 DUP5 PUSH2 0x2E00 JUMP JUMPDEST SWAP1 POP SWAP3 SWAP2 POP POP JUMP JUMPDEST PUSH1 0x0 PUSH1 0x20 DUP3 ADD SWAP1 POP PUSH2 0x2EAC PUSH1 0x0 DUP4 ADD DUP5 PUSH2 0x2A0C JUMP JUMPDEST SWAP3 SWAP2 POP POP JUMP JUMPDEST PUSH1 0x0 DUP1 REVERT JUMPDEST PUSH1 0x0 PUSH8 0xFFFFFFFFFFFFFFFF DUP3 GT ISZERO PUSH2 0x2ED2 JUMPI PUSH2 0x2ED1 PUSH2 0x2A83 JUMP JUMPDEST JUMPDEST PUSH2 0x2EDB DUP3 PUSH2 0x294B JUMP JUMPDEST SWAP1 POP PUSH1 0x20 DUP2 ADD SWAP1 POP SWAP2 SWAP1 POP JUMP JUMPDEST DUP3 DUP2 DUP4 CALLDATACOPY PUSH1 0x0 DUP4 DUP4 ADD MSTORE POP POP POP JUMP JUMPDEST PUSH1 0x0 PUSH2 0x2F0A PUSH2 0x2F05 DUP5 PUSH2 0x2EB7 JUMP JUMPDEST PUSH2 0x2AE3 JUMP JUMPDEST SWAP1 POP DUP3 DUP2 MSTORE PUSH1 0x20 DUP2 ADD DUP5 DUP5 DUP5 ADD GT ISZERO PUSH2 0x2F26 JUMPI PUSH2 0x2F25 PUSH2 0x2EB2 JUMP JUMPDEST JUMPDEST PUSH2 0x2F31 DUP5 DUP3 DUP6 PUSH2 0x2EE8 JUMP JUMPDEST POP SWAP4 SWAP3 POP POP POP JUMP JUMPDEST PUSH1 0x0 DUP3 PUSH1 0x1F DUP4 ADD SLT PUSH2 0x2F4E JUMPI PUSH2 0x2F4D PUSH2 0x2749 JUMP JUMPDEST JUMPDEST DUP2 CALLDATALOAD PUSH2 0x2F5E DUP5 DUP3 PUSH1 0x20 DUP7 ADD PUSH2 0x2EF7 JUMP JUMPDEST SWAP2 POP POP SWAP3 SWAP2 POP POP JUMP JUMPDEST PUSH1 0x0 DUP1 PUSH1 0x0 PUSH1 0x60 DUP5 DUP7 SUB SLT ISZERO PUSH2 0x2F80 JUMPI PUSH2 0x2F7F PUSH2 0x26A6 JUMP JUMPDEST JUMPDEST PUSH1 0x0 PUSH2 0x2F8E DUP7 DUP3 DUP8 ADD PUSH2 0x26D1 JUMP JUMPDEST SWAP4 POP POP PUSH1 0x20 DUP5 ADD CALLDATALOAD PUSH8 0xFFFFFFFFFFFFFFFF DUP2 GT ISZERO PUSH2 0x2FAF JUMPI PUSH2 0x2FAE PUSH2 0x26AB JUMP JUMPDEST JUMPDEST PUSH2 0x2FBB DUP7 DUP3 DUP8 ADD PUSH2 0x2F39 JUMP JUMPDEST SWAP3 POP POP PUSH1 0x40 PUSH2 0x2FCC DUP7 DUP3 DUP8 ADD PUSH2 0x2734 JUMP JUMPDEST SWAP2 POP POP SWAP3 POP SWAP3 POP SWAP3 JUMP JUMPDEST PUSH2 0x2FDF DUP2 PUSH2 0x280C JUMP JUMPDEST DUP3 MSTORE POP POP JUMP JUMPDEST PUSH1 0x0 PUSH2 0x160 DUP3 ADD SWAP1 POP PUSH2 0x2FFB PUSH1 0x0 DUP4 ADD DUP15 PUSH2 0x28DE JUMP JUMPDEST PUSH2 0x3008 PUSH1 0x20 DUP4 ADD DUP14 PUSH2 0x28ED JUMP JUMPDEST DUP2 DUP2 SUB PUSH1 0x40 DUP4 ADD MSTORE PUSH2 0x301A DUP2 DUP13 PUSH2 0x295C JUMP JUMPDEST SWAP1 POP PUSH2 0x3029 PUSH1 0x60 DUP4 ADD DUP12 PUSH2 0x29FD JUMP JUMPDEST PUSH2 0x3036 PUSH1 0x80 DUP4 ADD DUP11 PUSH2 0x2FD6 JUMP JUMPDEST PUSH2 0x3043 PUSH1 0xA0 DUP4 ADD DUP10 PUSH2 0x2A0C JUMP JUMPDEST PUSH2 0x3050 PUSH1 0xC0 DUP4 ADD DUP9 PUSH2 0x28ED JUMP JUMPDEST PUSH2 0x305D PUSH1 0xE0 DUP4 ADD DUP8 PUSH2 0x2FD6 JUMP JUMPDEST PUSH2 0x306B PUSH2 0x100 DUP4 ADD DUP7 PUSH2 0x28ED JUMP JUMPDEST PUSH2 0x3079 PUSH2 0x120 DUP4 ADD DUP6 PUSH2 0x28ED JUMP JUMPDEST PUSH2 0x3087 PUSH2 0x140 DUP4 ADD DUP5 PUSH2 0x28ED JUMP JUMPDEST SWAP13 SWAP12 POP POP POP POP POP POP POP POP POP POP POP POP JUMP JUMPDEST PUSH1 0x0 PUSH1 0x20 DUP3 DUP5 SUB SLT ISZERO PUSH2 0x30AD JUMPI PUSH2 0x30AC PUSH2 0x26A6 JUMP JUMPDEST JUMPDEST PUSH1 0x0 PUSH2 0x30BB DUP5 DUP3 DUP6 ADD PUSH2 0x27F7 JUMP JUMPDEST SWAP2 POP POP SWAP3 SWAP2 POP POP JUMP JUMPDEST PUSH1 0x0 DUP1 PUSH1 0x40 DUP4 DUP6 SUB SLT ISZERO PUSH2 0x30DB JUMPI PUSH2 0x30DA PUSH2 0x26A6 JUMP JUMPDEST JUMPDEST PUSH1 0x0 PUSH2 0x30E9 DUP6 DUP3 DUP7 ADD PUSH2 0x27F7 JUMP JUMPDEST SWAP3 POP POP PUSH1 0x20 PUSH2 0x30FA DUP6 DUP3 DUP7 ADD PUSH2 0x2734 JUMP JUMPDEST SWAP2 POP POP SWAP3 POP SWAP3 SWAP1 POP JUMP JUMPDEST PUSH1 0x0 PUSH1 0x20 DUP3 ADD SWAP1 POP PUSH2 0x3119 PUSH1 0x0 DUP4 ADD DUP5 PUSH2 0x28DE JUMP JUMPDEST SWAP3 SWAP2 POP POP JUMP JUMPDEST PUSH1 0x0 DUP2 MLOAD SWAP1 POP SWAP2 SWAP1 POP JUMP JUMPDEST PUSH1 0x0 DUP3 DUP3 MSTORE PUSH1 0x20 DUP3 ADD SWAP1 POP SWAP3 SWAP2 POP POP JUMP JUMPDEST PUSH1 0x0 DUP2 SWAP1 POP PUSH1 0x20 DUP3 ADD SWAP1 POP SWAP2 SWAP1 POP JUMP JUMPDEST PUSH1 0x0 PUSH2 0x3157 DUP4 DUP4 PUSH2 0x2C5B JUMP JUMPDEST PUSH1 0x20 DUP4 ADD SWAP1 POP SWAP3 SWAP2 POP POP JUMP JUMPDEST PUSH1 0x0 PUSH1 0x20 DUP3 ADD SWAP1 POP SWAP2 SWAP1 POP JUMP JUMPDEST PUSH1 0x0 PUSH2 0x317B DUP3 PUSH2 0x311F JUMP JUMPDEST PUSH2 0x3185 DUP2 DUP6 PUSH2 0x312A JUMP JUMPDEST SWAP4 POP PUSH2 0x3190 DUP4 PUSH2 0x313B JUMP JUMPDEST DUP1 PUSH1 0x0 JUMPDEST DUP4 DUP2 LT ISZERO PUSH2 0x31C1 JUMPI DUP2 MLOAD PUSH2 0x31A8 DUP9 DUP3 PUSH2 0x314B JUMP JUMPDEST SWAP8 POP PUSH2 0x31B3 DUP4 PUSH2 0x3163 JUMP JUMPDEST SWAP3 POP POP PUSH1 0x1 DUP2 ADD SWAP1 POP PUSH2 0x3194 JUMP JUMPDEST POP DUP6 SWAP4 POP POP POP POP SWAP3 SWAP2 POP POP JUMP JUMPDEST PUSH1 0x0 PUSH1 0x20 DUP3 ADD SWAP1 POP DUP2 DUP2 SUB PUSH1 0x0 DUP4 ADD MSTORE PUSH2 0x31E8 DUP2 DUP5 PUSH2 0x3170 JUMP JUMPDEST SWAP1 POP SWAP3 SWAP2 POP POP JUMP JUMPDEST PUSH1 0x0 DUP1 PUSH1 0x40 DUP4 DUP6 SUB SLT ISZERO PUSH2 0x3207 JUMPI PUSH2 0x3206 PUSH2 0x26A6 JUMP JUMPDEST JUMPDEST PUSH1 0x0 PUSH2 0x3215 DUP6 DUP3 DUP7 ADD PUSH2 0x2B3A JUMP JUMPDEST SWAP3 POP POP PUSH1 0x20 PUSH2 0x3226 DUP6 DUP3 DUP7 ADD PUSH2 0x26D1 JUMP JUMPDEST SWAP2 POP POP SWAP3 POP SWAP3 SWAP1 POP JUMP JUMPDEST PUSH32 0x4E487B7100000000000000000000000000000000000000000000000000000000 PUSH1 0x0 MSTORE PUSH1 0x32 PUSH1 0x4 MSTORE PUSH1 0x24 PUSH1 0x0 REVERT JUMPDEST PUSH32 0x4E487B7100000000000000000000000000000000000000000000000000000000 PUSH1 0x0 MSTORE PUSH1 0x11 PUSH1 0x4 MSTORE PUSH1 0x24 PUSH1 0x0 REVERT JUMPDEST PUSH1 0x0 PUSH2 0x3299 DUP3 PUSH2 0x2713 JUMP JUMPDEST SWAP2 POP PUSH2 0x32A4 DUP4 PUSH2 0x2713 JUMP JUMPDEST SWAP3 POP DUP3 DUP3 LT ISZERO PUSH2 0x32B7 JUMPI PUSH2 0x32B6 PUSH2 0x325F JUMP JUMPDEST JUMPDEST DUP3 DUP3 SUB SWAP1 POP SWAP3 SWAP2 POP POP JUMP JUMPDEST PUSH32 0x4E487B7100000000000000000000000000000000000000000000000000000000 PUSH1 0x0 MSTORE PUSH1 0x31 PUSH1 0x4 MSTORE PUSH1 0x24 PUSH1 0x0 REVERT JUMPDEST PUSH1 0x0 DUP2 PUSH1 0x60 SHL SWAP1 POP SWAP2 SWAP1 POP JUMP JUMPDEST PUSH1 0x0 PUSH2 0x3309 DUP3 PUSH2 0x32F1 JUMP JUMPDEST SWAP1 POP SWAP2 SWAP1 POP JUMP JUMPDEST PUSH1 0x0 PUSH2 0x331B DUP3 PUSH2 0x32FE JUMP JUMPDEST SWAP1 POP SWAP2 SWAP1 POP JUMP JUMPDEST PUSH2 0x3333 PUSH2 0x332E DUP3 PUSH2 0x27CE JUMP JUMPDEST PUSH2 0x3310 JUMP JUMPDEST DUP3 MSTORE POP POP JUMP JUMPDEST PUSH1 0x0 DUP2 SWAP1 POP SWAP2 SWAP1 POP JUMP JUMPDEST PUSH2 0x3354 PUSH2 0x334F DUP3 PUSH2 0x2713 JUMP JUMPDEST PUSH2 0x3339 JUMP JUMPDEST DUP3 MSTORE POP POP JUMP JUMPDEST PUSH1 0x0 PUSH2 0x3366 DUP3 DUP7 PUSH2 0x3322 JUMP JUMPDEST PUSH1 0x14 DUP3 ADD SWAP2 POP PUSH2 0x3376 DUP3 DUP6 PUSH2 0x3322 JUMP JUMPDEST PUSH1 0x14 DUP3 ADD SWAP2 POP PUSH2 0x3386 DUP3 DUP5 PUSH2 0x3343 JUMP JUMPDEST PUSH1 0x20 DUP3 ADD SWAP2 POP DUP2 SWAP1 POP SWAP5 SWAP4 POP POP POP POP JUMP JUMPDEST PUSH32 0x414C524541445920524547495354455245440000000000000000000000000000 PUSH1 0x0 DUP3 ADD MSTORE POP JUMP JUMPDEST PUSH1 0x0 PUSH2 0x33CD PUSH1 0x12 DUP4 PUSH2 0x2907 JUMP JUMPDEST SWAP2 POP PUSH2 0x33D8 DUP3 PUSH2 0x3397 JUMP JUMPDEST PUSH1 0x20 DUP3 ADD SWAP1 POP SWAP2 SWAP1 POP JUMP JUMPDEST PUSH1 0x0 PUSH1 0x20 DUP3 ADD SWAP1 POP DUP2 DUP2 SUB PUSH1 0x0 DUP4 ADD MSTORE PUSH2 0x33FC DUP2 PUSH2 0x33C0 JUMP JUMPDEST SWAP1 POP SWAP2 SWAP1 POP JUMP JUMPDEST PUSH32 0x637265617465645F61742063616E6E6F74206265206772656174657220746861 PUSH1 0x0 DUP3 ADD MSTORE PUSH32 0x6E2073746172745F617400000000000000000000000000000000000000000000 PUSH1 0x20 DUP3 ADD MSTORE POP JUMP JUMPDEST PUSH1 0x0 PUSH2 0x345F PUSH1 0x2A DUP4 PUSH2 0x2907 JUMP JUMPDEST SWAP2 POP PUSH2 0x346A DUP3 PUSH2 0x3403 JUMP JUMPDEST PUSH1 0x40 DUP3 ADD SWAP1 POP SWAP2 SWAP1 POP JUMP JUMPDEST PUSH1 0x0 PUSH1 0x20 DUP3 ADD SWAP1 POP DUP2 DUP2 SUB PUSH1 0x0 DUP4 ADD MSTORE PUSH2 0x348E DUP2 PUSH2 0x3452 JUMP JUMPDEST SWAP1 POP SWAP2 SWAP1 POP JUMP JUMPDEST PUSH1 0x0 PUSH2 0x34A1 DUP4 DUP6 PUSH2 0x2907 JUMP JUMPDEST SWAP4 POP PUSH2 0x34AE DUP4 DUP6 DUP5 PUSH2 0x2EE8 JUMP JUMPDEST PUSH2 0x34B7 DUP4 PUSH2 0x294B JUMP JUMPDEST DUP5 ADD SWAP1 POP SWAP4 SWAP3 POP POP POP JUMP JUMPDEST PUSH1 0x0 PUSH1 0xA0 DUP3 ADD SWAP1 POP PUSH2 0x34D7 PUSH1 0x0 DUP4 ADD DUP10 PUSH2 0x28DE JUMP JUMPDEST PUSH2 0x34E4 PUSH1 0x20 DUP4 ADD DUP9 PUSH2 0x28ED JUMP JUMPDEST PUSH2 0x34F1 PUSH1 0x40 DUP4 ADD DUP8 PUSH2 0x28ED JUMP JUMPDEST DUP2 DUP2 SUB PUSH1 0x60 DUP4 ADD MSTORE PUSH2 0x3504 DUP2 DUP6 DUP8 PUSH2 0x3495 JUMP JUMPDEST SWAP1 POP PUSH2 0x3513 PUSH1 0x80 DUP4 ADD DUP5 PUSH2 0x29FD JUMP JUMPDEST SWAP8 SWAP7 POP POP POP POP POP POP POP JUMP JUMPDEST PUSH32 0x4E487B7100000000000000000000000000000000000000000000000000000000 PUSH1 0x0 MSTORE PUSH1 0x22 PUSH1 0x4 MSTORE PUSH1 0x24 PUSH1 0x0 REVERT JUMPDEST PUSH1 0x0 PUSH1 0x2 DUP3 DIV SWAP1 POP PUSH1 0x1 DUP3 AND DUP1 PUSH2 0x3565 JUMPI PUSH1 0x7F DUP3 AND SWAP2 POP JUMPDEST PUSH1 0x20 DUP3 LT DUP2 EQ ISZERO PUSH2 0x3579 JUMPI PUSH2 0x3578 PUSH2 0x351E JUMP JUMPDEST JUMPDEST POP SWAP2 SWAP1 POP JUMP JUMPDEST PUSH1 0x0 PUSH2 0x358A DUP3 PUSH2 0x2713 JUMP JUMPDEST SWAP2 POP PUSH2 0x3595 DUP4 PUSH2 0x2713 JUMP JUMPDEST SWAP3 POP DUP3 PUSH32 0xFFFFFFFFFFFFFFFFFFFFFFFFFFFFFFFFFFFFFFFFFFFFFFFFFFFFFFFFFFFFFFFF SUB DUP3 GT ISZERO PUSH2 0x35CA JUMPI PUSH2 0x35C9 PUSH2 0x325F JUMP JUMPDEST JUMPDEST DUP3 DUP3 ADD SWAP1 POP SWAP3 SWAP2 POP POP JUMP JUMPDEST PUSH1 0x0 PUSH2 0x35E0 DUP3 PUSH2 0x2713 JUMP JUMPDEST SWAP2 POP PUSH32 0xFFFFFFFFFFFFFFFFFFFFFFFFFFFFFFFFFFFFFFFFFFFFFFFFFFFFFFFFFFFFFFFF DUP3 EQ ISZERO PUSH2 0x3613 JUMPI PUSH2 0x3612 PUSH2 0x325F JUMP JUMPDEST JUMPDEST PUSH1 0x1 DUP3 ADD SWAP1 POP SWAP2 SWAP1 POP JUMP JUMPDEST PUSH1 0x0 DUP2 SWAP1 POP SWAP3 SWAP2 POP POP JUMP JUMPDEST PUSH1 0x0 PUSH2 0x3634 DUP3 PUSH2 0x28FC JUMP JUMPDEST PUSH2 0x363E DUP2 DUP6 PUSH2 0x361E JUMP JUMPDEST SWAP4 POP PUSH2 0x364E DUP2 DUP6 PUSH1 0x20 DUP7 ADD PUSH2 0x2918 JUMP JUMPDEST DUP1 DUP5 ADD SWAP2 POP POP SWAP3 SWAP2 POP POP JUMP JUMPDEST PUSH1 0x0 PUSH2 0x3666 DUP3 DUP5 PUSH2 0x3629 JUMP JUMPDEST SWAP2 POP DUP2 SWAP1 POP SWAP3 SWAP2 POP POP JUMP JUMPDEST PUSH1 0x0 DUP2 SWAP1 POP DUP2 PUSH1 0x0 MSTORE PUSH1 0x20 PUSH1 0x0 KECCAK256 SWAP1 POP SWAP2 SWAP1 POP JUMP JUMPDEST PUSH1 0x0 DUP2 SLOAD PUSH2 0x3693 DUP2 PUSH2 0x354D JUMP JUMPDEST PUSH2 0x369D DUP2 DUP7 PUSH2 0x361E JUMP JUMPDEST SWAP5 POP PUSH1 0x1 DUP3 AND PUSH1 0x0 DUP2 EQ PUSH2 0x36B8 JUMPI PUSH1 0x1 DUP2 EQ PUSH2 0x36C9 JUMPI PUSH2 0x36FC JUMP JUMPDEST PUSH1 0xFF NOT DUP4 AND DUP7 MSTORE DUP2 DUP7 ADD SWAP4 POP PUSH2 0x36FC JUMP JUMPDEST PUSH2 0x36D2 DUP6 PUSH2 0x3671 JUMP JUMPDEST PUSH1 0x0 JUMPDEST DUP4 DUP2 LT ISZERO PUSH2 0x36F4 JUMPI DUP2 SLOAD DUP2 DUP10 ADD MSTORE PUSH1 0x1 DUP3 ADD SWAP2 POP PUSH1 0x20 DUP2 ADD SWAP1 POP PUSH2 0x36D5 JUMP JUMPDEST DUP4 DUP9 ADD SWAP6 POP POP POP JUMPDEST POP POP POP SWAP3 SWAP2 POP POP JUMP JUMPDEST PUSH1 0x0 PUSH2 0x3711 DUP3 DUP5 PUSH2 0x3686 JUMP JUMPDEST SWAP2 POP DUP2 SWAP1 POP SWAP3 SWAP2 POP POP JUMP JUMPDEST PUSH32 0x4F776E61626C653A206E6577206F776E657220697320746865207A65726F2061 PUSH1 0x0 DUP3 ADD MSTORE PUSH32 0x6464726573730000000000000000000000000000000000000000000000000000 PUSH1 0x20 DUP3 ADD MSTORE POP JUMP JUMPDEST PUSH1 0x0 PUSH2 0x3778 PUSH1 0x26 DUP4 PUSH2 0x2907 JUMP JUMPDEST SWAP2 POP PUSH2 0x3783 DUP3 PUSH2 0x371C JUMP JUMPDEST PUSH1 0x40 DUP3 ADD SWAP1 POP SWAP2 SWAP1 POP JUMP JUMPDEST PUSH1 0x0 PUSH1 0x20 DUP3 ADD SWAP1 POP DUP2 DUP2 SUB PUSH1 0x0 DUP4 ADD MSTORE PUSH2 0x37A7 DUP2 PUSH2 0x376B JUMP JUMPDEST SWAP1 POP SWAP2 SWAP1 POP JUMP JUMPDEST PUSH1 0x0 PUSH1 0x40 DUP3 ADD SWAP1 POP PUSH2 0x37C3 PUSH1 0x0 DUP4 ADD DUP6 PUSH2 0x28DE JUMP JUMPDEST PUSH2 0x37D0 PUSH1 0x20 DUP4 ADD DUP5 PUSH2 0x29FD JUMP JUMPDEST SWAP4 SWAP3 POP POP POP JUMP JUMPDEST PUSH32 0x4F776E61626C653A2063616C6C6572206973206E6F7420746865206F776E6572 PUSH1 0x0 DUP3 ADD MSTORE POP JUMP JUMPDEST PUSH1 0x0 PUSH2 0x380D PUSH1 0x20 DUP4 PUSH2 0x2907 JUMP JUMPDEST SWAP2 POP PUSH2 0x3818 DUP3 PUSH2 0x37D7 JUMP JUMPDEST PUSH1 0x20 DUP3 ADD SWAP1 POP SWAP2 SWAP1 POP JUMP JUMPDEST PUSH1 0x0 PUSH1 0x20 DUP3 ADD SWAP1 POP DUP2 DUP2 SUB PUSH1 0x0 DUP4 ADD MSTORE PUSH2 0x383C DUP2 PUSH2 0x3800 JUMP JUMPDEST SWAP1 POP SWAP2 SWAP1 POP JUMP INVALID LOG2 PUSH5 0x6970667358 0x22 SLT KECCAK256 SWAP11 SELFDESTRUCT 0x5F 0x5C 0xD7 0xD3 PUSH8 0x13A1F2F2F32976AA DUP16 0xBD EXTCODECOPY DUP12 0xB5 0xC7 0x4E 0xE9 0xDA JUMP PUSH4 0xE50DE97 SWAP12 0xF7 PUSH5 0x736F6C6343 STOP ADDMOD MULMOD STOP CALLER "},"methodIdentifiers":{"address_to_audio_chat(address,uint256)":"c6e98d86","changeState(uint8,bytes32)":"f8b6b2d2","createNewAudioChat(uint256,uint256,string,address,bool)":"42093c18","deleteTheAudioChat(bytes32)":"2b61e205","getAllChats()":"e808a540","getAllOwnedIds()":"de68f8a6","getAudioChatById(bytes32)":"5b33c80d","getAudioChatsByAdress(address)":"a476484c","getAudioChatsByState(uint8[])":"7ff45d83","id_to_audio_chat(bytes32)":"9f737400","owner()":"8da5cb5b","renounceOwnership()":"715018a6","transferOwnership(address)":"f2fde38b","updateTheAudioChat(bytes32,string,uint256)":"93bde70a"}},"storageLayout":{"storage":[{"astId":7,"contract":"contracts/AudioChat.sol:AudioChat","label":"_owner","offset":0,"slot":"0","type":"t_address"},{"astId":199,"contract":"contracts/AudioChat.sol:AudioChat","label":"_owned_ids","offset":0,"slot":"1","type":"t_array(t_bytes32)dyn_storage"},{"astId":202,"contract":"contracts/AudioChat.sol:AudioChat","label":"state_live","offset":0,"slot":"2","type":"t_array(t_bytes32)dyn_storage"},{"astId":205,"contract":"contracts/AudioChat.sol:AudioChat","label":"state_canceled","offset":0,"slot":"3","type":"t_array(t_bytes32)dyn_storage"},{"astId":208,"contract":"contracts/AudioChat.sol:AudioChat","label":"state_planned","offset":0,"slot":"4","type":"t_array(t_bytes32)dyn_storage"},{"astId":211,"contract":"contracts/AudioChat.sol:AudioChat","label":"state_ready","offset":0,"slot":"5","type":"t_array(t_bytes32)dyn_storage"},{"astId":214,"contract":"contracts/AudioChat.sol:AudioChat","label":"state_finished","offset":0,"slot":"6","type":"t_array(t_bytes32)dyn_storage"},{"astId":219,"contract":"contracts/AudioChat.sol:AudioChat","label":"id_to_audio_chat","offset":0,"slot":"7","type":"t_mapping(t_bytes32,t_struct(CreateAudioChat)196_storage)"},{"astId":224,"contract":"contracts/AudioChat.sol:AudioChat","label":"address_to_audio_chat","offset":0,"slot":"8","type":"t_mapping(t_address,t_array(t_bytes32)dyn_storage)"}],"types":{"t_address":{"encoding":"inplace","label":"address","numberOfBytes":"20"},"t_array(t_bytes32)dyn_storage":{"base":"t_bytes32","encoding":"dynamic_array","label":"bytes32[]","numberOfBytes":"32"},"t_bool":{"encoding":"inplace","label":"bool","numberOfBytes":"1"},"t_bytes32":{"encoding":"inplace","label":"bytes32","numberOfBytes":"32"},"t_enum(stateOptions)172":{"encoding":"inplace","label":"enum AudioChat.stateOptions","numberOfBytes":"1"},"t_mapping(t_address,t_array(t_bytes32)dyn_storage)":{"encoding":"mapping","key":"t_address","label":"mapping(address => bytes32[])","numberOfBytes":"32","value":"t_array(t_bytes32)dyn_storage"},"t_mapping(t_bytes32,t_struct(CreateAudioChat)196_storage)":{"encoding":"mapping","key":"t_bytes32","label":"mapping(bytes32 => struct AudioChat.CreateAudioChat)","numberOfBytes":"32","value":"t_struct(CreateAudioChat)196_storage"},"t_string_storage":{"encoding":"bytes","label":"string","numberOfBytes":"32"},"t_struct(CreateAudioChat)196_storage":{"encoding":"inplace","label":"struct AudioChat.CreateAudioChat","members":[{"astId":174,"contract":"contracts/AudioChat.sol:AudioChat","label":"audio_event_id","offset":0,"slot":"0","type":"t_bytes32"},{"astId":176,"contract":"contracts/AudioChat.sol:AudioChat","label":"created_at","offset":0,"slot":"1","type":"t_uint256"},{"astId":178,"contract":"contracts/AudioChat.sol:AudioChat","label":"cid_metadata","offset":0,"slot":"2","type":"t_string_storage"},{"astId":181,"contract":"contracts/AudioChat.sol:AudioChat","label":"state","offset":0,"slot":"3","type":"t_enum(stateOptions)172"},{"astId":183,"contract":"contracts/AudioChat.sol:AudioChat","label":"is_indexed","offset":1,"slot":"3","type":"t_bool"},{"astId":185,"contract":"contracts/AudioChat.sol:AudioChat","label":"creator","offset":2,"slot":"3","type":"t_address"},{"astId":187,"contract":"contracts/AudioChat.sol:AudioChat","label":"start_at","offset":0,"slot":"4","type":"t_uint256"},{"astId":189,"contract":"contracts/AudioChat.sol:AudioChat","label":"exists","offset":0,"slot":"5","type":"t_bool"},{"astId":191,"contract":"contracts/AudioChat.sol:AudioChat","label":"id_index","offset":0,"slot":"6","type":"t_uint256"},{"astId":193,"contract":"contracts/AudioChat.sol:AudioChat","label":"state_index","offset":0,"slot":"7","type":"t_uint256"},{"astId":195,"contract":"contracts/AudioChat.sol:AudioChat","label":"address_index","offset":0,"slot":"8","type":"t_uint256"}],"numberOfBytes":"288"},"t_uint256":{"encoding":"inplace","label":"uint256","numberOfBytes":"32"}}}}}}